{
  "_format": "hh-sol-artifact-1",
  "contractName": "ExternalContract",
  "sourceName": "contracts/ExternalContract.sol",
  "abi": [
    {
      "inputs": [],
      "stateMutability": "payable",
      "type": "constructor"
    },
    {
      "inputs": [],
      "name": "InsufficientBalance",
      "type": "error"
    },
    {
      "inputs": [
        {
          "internalType": "address",
          "name": "recipient",
          "type": "address"
        }
      ],
      "name": "WithdrawFailed",
      "type": "error"
    },
    {
      "anonymous": false,
      "inputs": [
        {
          "indexed": true,
          "internalType": "address",
          "name": "sender",
          "type": "address"
        },
        {
          "indexed": false,
          "internalType": "uint256",
          "name": "amount",
          "type": "uint256"
        },
        {
          "indexed": false,
          "internalType": "uint256",
          "name": "timestamp",
          "type": "uint256"
        }
      ],
      "name": "EtherReceived",
      "type": "event"
    },
    {
      "anonymous": false,
      "inputs": [
        {
          "indexed": false,
          "internalType": "uint256",
          "name": "amount",
          "type": "uint256"
        },
        {
          "indexed": false,
          "internalType": "uint256",
          "name": "when",
          "type": "uint256"
        }
      ],
      "name": "Withdrawal",
      "type": "event"
    },
    {
      "stateMutability": "payable",
      "type": "fallback"
    },
    {
      "inputs": [],
      "name": "owner",
      "outputs": [
        {
          "internalType": "address payable",
          "name": "",
          "type": "address"
        }
      ],
      "stateMutability": "view",
      "type": "function"
    },
    {
      "inputs": [
        {
          "internalType": "uint256",
          "name": "_value",
          "type": "uint256"
        }
      ],
      "name": "setValue",
      "outputs": [],
      "stateMutability": "payable",
      "type": "function"
    },
    {
      "inputs": [],
      "name": "storedValue",
      "outputs": [
        {
          "internalType": "uint256",
          "name": "",
          "type": "uint256"
        }
      ],
      "stateMutability": "view",
      "type": "function"
    },
    {
      "inputs": [],
      "name": "unlockTime",
      "outputs": [
        {
          "internalType": "uint256",
          "name": "",
          "type": "uint256"
        }
      ],
      "stateMutability": "view",
      "type": "function"
    },
    {
      "inputs": [
        {
          "internalType": "uint256",
          "name": "_amount",
          "type": "uint256"
        }
      ],
      "name": "withdraw",
      "outputs": [],
      "stateMutability": "payable",
      "type": "function"
    },
    {
      "stateMutability": "payable",
      "type": "receive"
    }
  ],
  "bytecode": "0x6080604052600180546001600160a01b031916331790556102e2806100256000396000f3fe60806040526004361061004e5760003560e01c8063251c1aa3146100c75780632e1a7d4d146100f057806355241077146101055780636d619daa146101185780638da5cb5b1461012e57610090565b36610090576040805134815242602082015233917f1d57945c1033a96907a78f6e0ebf6a03815725dac25f33cc806558670344ac8891015b60405180910390a2005b6040805134815242602082015233917f1d57945c1033a96907a78f6e0ebf6a03815725dac25f33cc806558670344ac889101610086565b3480156100d357600080fd5b506100dd60005481565b6040519081526020015b60405180910390f35b6101036100fe366004610293565b610166565b005b610103610113366004610293565b61024a565b34801561012457600080fd5b506100dd60055481565b34801561013a57600080fd5b5060015461014e906001600160a01b031681565b6040516001600160a01b0390911681526020016100e7565b4781111561018757604051631e9acf1760e31b815260040160405180910390fd5b6001546040516000916001600160a01b03169083908381818185875af1925050503d80600081146101d4576040519150601f19603f3d011682016040523d82523d6000602084013e6101d9565b606091505b505090508061020e576001546040516303d70c3d60e51b81526001600160a01b03909116600482015260240160405180910390fd5b604080518381524260208201527fbf2ed60bd5b5965d685680c01195c9514e4382e28e3a5a2d2d5244bf59411b93910160405180910390a15050565b60058190553415610290576040805134815242602082015233917f1d57945c1033a96907a78f6e0ebf6a03815725dac25f33cc806558670344ac88910160405180910390a25b50565b6000602082840312156102a557600080fd5b503591905056fea2646970667358221220c9e88fc664fa3ec58b5a2702164628558b6a6feac909dafd4b5f12d13ef398ef64736f6c63430008120033",
  "linkReferences": {},
  "deployedLinkReferences": {}
}