{
  "_format": "hh-sol-artifact-1",
  "contractName": "ForwarderContract",
  "sourceName": "contracts/ForwarderContract.sol",
  "abi": [
    {
      "inputs": [
        {
          "internalType": "address",
          "name": "_multiSigWallet",
          "type": "address"
        }
      ],
      "stateMutability": "nonpayable",
      "type": "constructor"
    },
    {
      "inputs": [
        {
          "internalType": "address",
          "name": "target",
          "type": "address"
        }
      ],
      "name": "ForwardCallFailed",
      "type": "error"
    },
    {
      "inputs": [],
      "name": "InsufficientBalance",
      "type": "error"
    },
    {
      "inputs": [],
      "name": "InsufficientTargetBalance",
      "type": "error"
    },
    {
      "inputs": [],
      "name": "NotApprovedCaller",
      "type": "error"
    },
    {
      "inputs": [],
      "name": "OnlyMultiSigWalletAllowed",
      "type": "error"
    },
    {
      "anonymous": false,
      "inputs": [
        {
          "indexed": true,
          "internalType": "address",
          "name": "caller",
          "type": "address"
        }
      ],
      "name": "CallerApproved",
      "type": "event"
    },
    {
      "anonymous": false,
      "inputs": [
        {
          "indexed": true,
          "internalType": "address",
          "name": "caller",
          "type": "address"
        }
      ],
      "name": "CallerRevoked",
      "type": "event"
    },
    {
      "anonymous": false,
      "inputs": [
        {
          "indexed": true,
          "internalType": "address",
          "name": "sender",
          "type": "address"
        },
        {
          "indexed": false,
          "internalType": "uint256",
          "name": "amount",
          "type": "uint256"
        },
        {
          "indexed": false,
          "internalType": "uint256",
          "name": "timestamp",
          "type": "uint256"
        }
      ],
      "name": "EtherReceived",
      "type": "event"
    },
    {
      "anonymous": false,
      "inputs": [
        {
          "indexed": true,
          "internalType": "address",
          "name": "caller",
          "type": "address"
        },
        {
          "indexed": true,
          "internalType": "address",
          "name": "target",
          "type": "address"
        },
        {
          "indexed": false,
          "internalType": "uint256",
          "name": "value",
          "type": "uint256"
        },
        {
          "indexed": false,
          "internalType": "bytes",
          "name": "data",
          "type": "bytes"
        },
        {
          "indexed": false,
          "internalType": "uint256",
          "name": "timestamp",
          "type": "uint256"
        }
      ],
      "name": "Forwarded",
      "type": "event"
    },
    {
      "stateMutability": "payable",
      "type": "fallback"
    },
    {
      "inputs": [
        {
          "internalType": "address",
          "name": "_caller",
          "type": "address"
        }
      ],
      "name": "approveCaller",
      "outputs": [],
      "stateMutability": "nonpayable",
      "type": "function"
    },
    {
      "inputs": [
        {
          "internalType": "address",
          "name": "",
          "type": "address"
        }
      ],
      "name": "approvedCallers",
      "outputs": [
        {
          "internalType": "bool",
          "name": "",
          "type": "bool"
        }
      ],
      "stateMutability": "view",
      "type": "function"
    },
    {
      "inputs": [
        {
          "internalType": "address",
          "name": "_target",
          "type": "address"
        },
        {
          "internalType": "uint256",
          "name": "_value",
          "type": "uint256"
        },
        {
          "internalType": "bytes",
          "name": "_data",
          "type": "bytes"
        }
      ],
      "name": "forwardCall",
      "outputs": [],
      "stateMutability": "payable",
      "type": "function"
    },
    {
      "inputs": [],
      "name": "multiSigWallet",
      "outputs": [
        {
          "internalType": "address",
          "name": "",
          "type": "address"
        }
      ],
      "stateMutability": "view",
      "type": "function"
    },
    {
      "inputs": [
        {
          "internalType": "address",
          "name": "_caller",
          "type": "address"
        }
      ],
      "name": "revokeCaller",
      "outputs": [],
      "stateMutability": "nonpayable",
      "type": "function"
    },
    {
      "inputs": [
        {
          "internalType": "address payable",
          "name": "_recipient",
          "type": "address"
        },
        {
          "internalType": "uint256",
          "name": "_amount",
          "type": "uint256"
        }
      ],
      "name": "withdraw",
      "outputs": [],
      "stateMutability": "nonpayable",
      "type": "function"
    },
    {
      "stateMutability": "payable",
      "type": "receive"
    }
  ],
  "bytecode": "0x608060405234801561001057600080fd5b506040516106eb3803806106eb83398101604081905261002f9161006d565b600080546001600160a01b039092166001600160a01b031990921682178155908152600160208190526040909120805460ff1916909117905561009d565b60006020828403121561007f57600080fd5b81516001600160a01b038116811461009657600080fd5b9392505050565b61063f806100ac6000396000f3fe6080604052600436106100595760003560e01c80634b8feb4f146100d25780636effec501461010f5780638affa08714610124578063a71975af14610144578063b774353014610184578063f3fef3a3146101a45761009b565b3661009b576040805134815242602082015233917f1d57945c1033a96907a78f6e0ebf6a03815725dac25f33cc806558670344ac8891015b60405180910390a2005b6040805134815242602082015233917f1d57945c1033a96907a78f6e0ebf6a03815725dac25f33cc806558670344ac889101610091565b3480156100de57600080fd5b506000546100f2906001600160a01b031681565b6040516001600160a01b0390911681526020015b60405180910390f35b61012261011d3660046104e0565b6101c4565b005b34801561013057600080fd5b5061012261013f366004610569565b61030a565b34801561015057600080fd5b5061017461015f366004610569565b60016020526000908152604090205460ff1681565b6040519015158152602001610106565b34801561019057600080fd5b5061012261019f366004610569565b610384565b3480156101b057600080fd5b506101226101bf36600461058d565b6103f8565b3360009081526001602052604090205460ff166101f45760405163ef08a8b160e01b815260040160405180910390fd5b60008311801561020357508247105b156102215760405163028c592d60e61b815260040160405180910390fd5b6000846001600160a01b031684848460405161023e9291906105b9565b60006040518083038185875af1925050503d806000811461027b576040519150601f19603f3d011682016040523d82523d6000602084013e610280565b606091505b50509050806102b25760405163d7f5326d60e01b81526001600160a01b03861660048201526024015b60405180910390fd5b846001600160a01b0316336001600160a01b03167f8d7d2243dd01c357a51f633cbe823c26904c29b5b9efa18e3171d16b6998d463868686426040516102fb94939291906105c9565b60405180910390a35050505050565b6000546001600160a01b0316331461033557604051630365ba4760e31b815260040160405180910390fd5b6001600160a01b0381166000818152600160208190526040808320805460ff1916909217909155517f3546b8a22915a93fd4ccd5b3660aa762972e87a4a553bfa7e50da0e5894f338e9190a250565b6000546001600160a01b031633146103af57604051630365ba4760e31b815260040160405180910390fd5b6001600160a01b038116600081815260016020526040808220805460ff19169055517f0491b0192bae7692618bfa4eff3f4942d2d8ec3300ef2e63d325b45e937c4ff19190a250565b6000546001600160a01b0316331461042357604051630365ba4760e31b815260040160405180910390fd5b4781111561044457604051631e9acf1760e31b815260040160405180910390fd5b6000826001600160a01b03168260405160006040518083038185875af1925050503d8060008114610491576040519150601f19603f3d011682016040523d82523d6000602084013e610496565b606091505b50509050806104c35760405163d7f5326d60e01b81526001600160a01b03841660048201526024016102a9565b505050565b6001600160a01b03811681146104dd57600080fd5b50565b600080600080606085870312156104f657600080fd5b8435610501816104c8565b935060208501359250604085013567ffffffffffffffff8082111561052557600080fd5b818701915087601f83011261053957600080fd5b81358181111561054857600080fd5b88602082850101111561055a57600080fd5b95989497505060200194505050565b60006020828403121561057b57600080fd5b8135610586816104c8565b9392505050565b600080604083850312156105a057600080fd5b82356105ab816104c8565b946020939093013593505050565b8183823760009101908152919050565b848152606060208201528260608201528284608083013760006080848301015260006080601f19601f86011683010190508260408301529594505050505056fea26469706673582212203eb99d3456ddd152a4c24be7e7477186957c876fe6fd616c999a9ea54ae6128664736f6c63430008120033",
  "linkReferences": {},
  "deployedLinkReferences": {}
}