{
  "_format": "hh-sol-artifact-1",
  "contractName": "ForwarderContract",
  "sourceName": "contracts/ForwarderContract.sol",
  "abi": [
    {
      "inputs": [],
      "stateMutability": "nonpayable",
      "type": "constructor"
    },
    {
      "inputs": [
        {
          "internalType": "address",
          "name": "target",
          "type": "address"
        }
      ],
      "name": "ForwardCallFailed",
      "type": "error"
    },
    {
      "inputs": [],
      "name": "InsufficientBalance",
      "type": "error"
    },
    {
      "inputs": [],
      "name": "InsufficientTargetBalance",
      "type": "error"
    },
    {
      "inputs": [
        {
          "internalType": "address",
          "name": "owner",
          "type": "address"
        }
      ],
      "name": "OwnableInvalidOwner",
      "type": "error"
    },
    {
      "inputs": [
        {
          "internalType": "address",
          "name": "account",
          "type": "address"
        }
      ],
      "name": "OwnableUnauthorizedAccount",
      "type": "error"
    },
    {
      "anonymous": false,
      "inputs": [
        {
          "indexed": true,
          "internalType": "address",
          "name": "sender",
          "type": "address"
        },
        {
          "indexed": false,
          "internalType": "uint256",
          "name": "amount",
          "type": "uint256"
        },
        {
          "indexed": false,
          "internalType": "uint256",
          "name": "timestamp",
          "type": "uint256"
        }
      ],
      "name": "EtherReceived",
      "type": "event"
    },
    {
      "anonymous": false,
      "inputs": [
        {
          "indexed": true,
          "internalType": "address",
          "name": "caller",
          "type": "address"
        },
        {
          "indexed": true,
          "internalType": "address",
          "name": "target",
          "type": "address"
        },
        {
          "indexed": false,
          "internalType": "uint256",
          "name": "value",
          "type": "uint256"
        },
        {
          "indexed": false,
          "internalType": "bytes",
          "name": "data",
          "type": "bytes"
        },
        {
          "indexed": false,
          "internalType": "uint256",
          "name": "timestamp",
          "type": "uint256"
        }
      ],
      "name": "Forwarded",
      "type": "event"
    },
    {
      "anonymous": false,
      "inputs": [
        {
          "indexed": true,
          "internalType": "address",
          "name": "previousOwner",
          "type": "address"
        },
        {
          "indexed": true,
          "internalType": "address",
          "name": "newOwner",
          "type": "address"
        }
      ],
      "name": "OwnershipTransferred",
      "type": "event"
    },
    {
      "stateMutability": "payable",
      "type": "fallback"
    },
    {
      "inputs": [
        {
          "internalType": "address",
          "name": "",
          "type": "address"
        }
      ],
      "name": "approvedCallers",
      "outputs": [
        {
          "internalType": "bool",
          "name": "",
          "type": "bool"
        }
      ],
      "stateMutability": "view",
      "type": "function"
    },
    {
      "inputs": [
        {
          "internalType": "address",
          "name": "_target",
          "type": "address"
        },
        {
          "internalType": "uint256",
          "name": "_value",
          "type": "uint256"
        },
        {
          "internalType": "bytes",
          "name": "_data",
          "type": "bytes"
        }
      ],
      "name": "forwardCall",
      "outputs": [],
      "stateMutability": "payable",
      "type": "function"
    },
    {
      "inputs": [],
      "name": "owner",
      "outputs": [
        {
          "internalType": "address",
          "name": "",
          "type": "address"
        }
      ],
      "stateMutability": "view",
      "type": "function"
    },
    {
      "inputs": [],
      "name": "renounceOwnership",
      "outputs": [],
      "stateMutability": "nonpayable",
      "type": "function"
    },
    {
      "inputs": [
        {
          "internalType": "address",
          "name": "newOwner",
          "type": "address"
        }
      ],
      "name": "transferOwnership",
      "outputs": [],
      "stateMutability": "nonpayable",
      "type": "function"
    },
    {
      "inputs": [
        {
          "internalType": "address payable",
          "name": "_recipient",
          "type": "address"
        },
        {
          "internalType": "uint256",
          "name": "_amount",
          "type": "uint256"
        }
      ],
      "name": "withdraw",
      "outputs": [],
      "stateMutability": "nonpayable",
      "type": "function"
    },
    {
      "stateMutability": "payable",
      "type": "receive"
    }
  ],
  "bytecode": "0x608060405234801561001057600080fd5b50338061003757604051631e4fbdf760e01b81526000600482015260240160405180910390fd5b61004081610046565b50610096565b600080546001600160a01b038381166001600160a01b0319831681178455604051919092169283917f8be0079c531659141344cd1fd0a4f28419497f9722a3daafe3b4186f6b6457e09190a35050565b6105af806100a56000396000f3fe6080604052600436106100595760003560e01c80636effec50146100d2578063715018a6146100e75780638da5cb5b146100fc578063a71975af14610129578063f2fde38b14610169578063f3fef3a3146101895761009b565b3661009b576040805134815242602082015233917f1d57945c1033a96907a78f6e0ebf6a03815725dac25f33cc806558670344ac8891015b60405180910390a2005b6040805134815242602082015233917f1d57945c1033a96907a78f6e0ebf6a03815725dac25f33cc806558670344ac889101610091565b6100e56100e0366004610450565b6101a9565b005b3480156100f357600080fd5b506100e56102bf565b34801561010857600080fd5b506000546040516001600160a01b0390911681526020015b60405180910390f35b34801561013557600080fd5b506101596101443660046104d9565b60016020526000908152604090205460ff1681565b6040519015158152602001610120565b34801561017557600080fd5b506100e56101843660046104d9565b6102d3565b34801561019557600080fd5b506100e56101a43660046104fd565b610311565b6000831180156101b857508247105b156101d65760405163028c592d60e61b815260040160405180910390fd5b6000846001600160a01b03168484846040516101f3929190610529565b60006040518083038185875af1925050503d8060008114610230576040519150601f19603f3d011682016040523d82523d6000602084013e610235565b606091505b50509050806102675760405163d7f5326d60e01b81526001600160a01b03861660048201526024015b60405180910390fd5b846001600160a01b0316336001600160a01b03167f8d7d2243dd01c357a51f633cbe823c26904c29b5b9efa18e3171d16b6998d463868686426040516102b09493929190610539565b60405180910390a35050505050565b6102c76103be565b6102d160006103eb565b565b6102db6103be565b6001600160a01b03811661030557604051631e4fbdf760e01b81526000600482015260240161025e565b61030e816103eb565b50565b6103196103be565b4781111561033a57604051631e9acf1760e31b815260040160405180910390fd5b6000826001600160a01b03168260405160006040518083038185875af1925050503d8060008114610387576040519150601f19603f3d011682016040523d82523d6000602084013e61038c565b606091505b50509050806103b95760405163d7f5326d60e01b81526001600160a01b038416600482015260240161025e565b505050565b6000546001600160a01b031633146102d15760405163118cdaa760e01b815233600482015260240161025e565b600080546001600160a01b038381166001600160a01b0319831681178455604051919092169283917f8be0079c531659141344cd1fd0a4f28419497f9722a3daafe3b4186f6b6457e09190a35050565b6001600160a01b038116811461030e57600080fd5b6000806000806060858703121561046657600080fd5b84356104718161043b565b935060208501359250604085013567ffffffffffffffff8082111561049557600080fd5b818701915087601f8301126104a957600080fd5b8135818111156104b857600080fd5b8860208285010111156104ca57600080fd5b95989497505060200194505050565b6000602082840312156104eb57600080fd5b81356104f68161043b565b9392505050565b6000806040838503121561051057600080fd5b823561051b8161043b565b946020939093013593505050565b8183823760009101908152919050565b848152606060208201528260608201528284608083013760006080848301015260006080601f19601f86011683010190508260408301529594505050505056fea2646970667358221220154ba490a8eb6ee365ada7a1865364ff666cc926bd1280080f075dc75735c19a64736f6c63430008180033",
  "linkReferences": {},
  "deployedLinkReferences": {}
}