{
  "_format": "hh-sol-artifact-1",
  "contractName": "MultiSigWallet",
  "sourceName": "contracts/MultiSigWallet.sol",
  "abi": [
    {
      "inputs": [
        {
          "internalType": "address[]",
          "name": "_approvers",
          "type": "address[]"
        },
        {
          "internalType": "uint256",
          "name": "_quorum",
          "type": "uint256"
        },
        {
          "internalType": "string",
          "name": "_name",
          "type": "string"
        }
      ],
      "stateMutability": "nonpayable",
      "type": "constructor"
    },
    {
      "inputs": [
        {
          "internalType": "address",
          "name": "target",
          "type": "address"
        }
      ],
      "name": "AddressEmptyCode",
      "type": "error"
    },
    {
      "inputs": [
        {
          "internalType": "address",
          "name": "account",
          "type": "address"
        }
      ],
      "name": "AddressInsufficientBalance",
      "type": "error"
    },
    {
      "inputs": [],
      "name": "FailedInnerCall",
      "type": "error"
    },
    {
      "inputs": [
        {
          "internalType": "address",
          "name": "token",
          "type": "address"
        }
      ],
      "name": "SafeERC20FailedOperation",
      "type": "error"
    },
    {
      "anonymous": false,
      "inputs": [
        {
          "indexed": true,
          "internalType": "address",
          "name": "newApprover",
          "type": "address"
        }
      ],
      "name": "ApproverAdded",
      "type": "event"
    },
    {
      "anonymous": false,
      "inputs": [
        {
          "indexed": true,
          "internalType": "address",
          "name": "removedApprover",
          "type": "address"
        }
      ],
      "name": "ApproverRemoved",
      "type": "event"
    },
    {
      "anonymous": false,
      "inputs": [
        {
          "indexed": false,
          "internalType": "uint256",
          "name": "newQuorum",
          "type": "uint256"
        }
      ],
      "name": "ChangeQuorumApproved",
      "type": "event"
    },
    {
      "anonymous": false,
      "inputs": [
        {
          "indexed": false,
          "internalType": "uint256",
          "name": "newQuorum",
          "type": "uint256"
        }
      ],
      "name": "ChangeQuorumProposed",
      "type": "event"
    },
    {
      "anonymous": false,
      "inputs": [
        {
          "indexed": true,
          "internalType": "address",
          "name": "approver",
          "type": "address"
        }
      ],
      "name": "NewApproverApproved",
      "type": "event"
    },
    {
      "anonymous": false,
      "inputs": [
        {
          "indexed": true,
          "internalType": "address",
          "name": "approver",
          "type": "address"
        }
      ],
      "name": "NewApproverProposed",
      "type": "event"
    },
    {
      "anonymous": false,
      "inputs": [
        {
          "indexed": true,
          "internalType": "enum MultiSigWallet.ManagementOption",
          "name": "proposal",
          "type": "uint8"
        }
      ],
      "name": "ProposalCancelled",
      "type": "event"
    },
    {
      "anonymous": false,
      "inputs": [
        {
          "indexed": false,
          "internalType": "uint256",
          "name": "newQuorum",
          "type": "uint256"
        }
      ],
      "name": "QuorumChanged",
      "type": "event"
    },
    {
      "anonymous": false,
      "inputs": [
        {
          "indexed": true,
          "internalType": "address",
          "name": "approver",
          "type": "address"
        }
      ],
      "name": "RemoveApproverApproved",
      "type": "event"
    },
    {
      "anonymous": false,
      "inputs": [
        {
          "indexed": true,
          "internalType": "address",
          "name": "approver",
          "type": "address"
        }
      ],
      "name": "RemoveApproverProposed",
      "type": "event"
    },
    {
      "anonymous": false,
      "inputs": [
        {
          "indexed": true,
          "internalType": "uint256",
          "name": "id",
          "type": "uint256"
        },
        {
          "indexed": true,
          "internalType": "address",
          "name": "approver",
          "type": "address"
        }
      ],
      "name": "TransactionApproved",
      "type": "event"
    },
    {
      "anonymous": false,
      "inputs": [
        {
          "indexed": true,
          "internalType": "uint256",
          "name": "id",
          "type": "uint256"
        }
      ],
      "name": "TransactionCancelled",
      "type": "event"
    },
    {
      "anonymous": false,
      "inputs": [
        {
          "indexed": true,
          "internalType": "uint256",
          "name": "id",
          "type": "uint256"
        },
        {
          "indexed": true,
          "internalType": "address",
          "name": "to",
          "type": "address"
        },
        {
          "indexed": false,
          "internalType": "bytes",
          "name": "data",
          "type": "bytes"
        }
      ],
      "name": "TransactionCreated",
      "type": "event"
    },
    {
      "anonymous": false,
      "inputs": [
        {
          "indexed": true,
          "internalType": "uint256",
          "name": "id",
          "type": "uint256"
        },
        {
          "indexed": true,
          "internalType": "address",
          "name": "to",
          "type": "address"
        },
        {
          "indexed": false,
          "internalType": "bytes",
          "name": "data",
          "type": "bytes"
        }
      ],
      "name": "TransactionExecuted",
      "type": "event"
    },
    {
      "anonymous": false,
      "inputs": [
        {
          "indexed": true,
          "internalType": "uint256",
          "name": "id",
          "type": "uint256"
        },
        {
          "indexed": true,
          "internalType": "address",
          "name": "approver",
          "type": "address"
        }
      ],
      "name": "TransferApproved",
      "type": "event"
    },
    {
      "anonymous": false,
      "inputs": [
        {
          "indexed": true,
          "internalType": "uint256",
          "name": "id",
          "type": "uint256"
        }
      ],
      "name": "TransferCancelled",
      "type": "event"
    },
    {
      "anonymous": false,
      "inputs": [
        {
          "indexed": false,
          "internalType": "uint256",
          "name": "id",
          "type": "uint256"
        },
        {
          "indexed": false,
          "internalType": "uint256",
          "name": "amount",
          "type": "uint256"
        },
        {
          "indexed": true,
          "internalType": "address",
          "name": "to",
          "type": "address"
        },
        {
          "indexed": false,
          "internalType": "address",
          "name": "token",
          "type": "address"
        }
      ],
      "name": "TransferCreated",
      "type": "event"
    },
    {
      "anonymous": false,
      "inputs": [
        {
          "indexed": true,
          "internalType": "uint256",
          "name": "id",
          "type": "uint256"
        },
        {
          "indexed": false,
          "internalType": "uint256",
          "name": "amount",
          "type": "uint256"
        },
        {
          "indexed": true,
          "internalType": "address",
          "name": "to",
          "type": "address"
        },
        {
          "indexed": false,
          "internalType": "address",
          "name": "token",
          "type": "address"
        }
      ],
      "name": "TransferSent",
      "type": "event"
    },
    {
      "stateMutability": "payable",
      "type": "fallback"
    },
    {
      "inputs": [
        {
          "internalType": "uint256",
          "name": "id",
          "type": "uint256"
        }
      ],
      "name": "approveTransaction",
      "outputs": [],
      "stateMutability": "nonpayable",
      "type": "function"
    },
    {
      "inputs": [
        {
          "internalType": "uint256",
          "name": "id",
          "type": "uint256"
        }
      ],
      "name": "approveTransfer",
      "outputs": [],
      "stateMutability": "nonpayable",
      "type": "function"
    },
    {
      "inputs": [
        {
          "internalType": "uint256",
          "name": "",
          "type": "uint256"
        }
      ],
      "name": "approvers",
      "outputs": [
        {
          "internalType": "address",
          "name": "",
          "type": "address"
        }
      ],
      "stateMutability": "view",
      "type": "function"
    },
    {
      "inputs": [
        {
          "internalType": "enum MultiSigWallet.ManagementOption",
          "name": "_proposal",
          "type": "uint8"
        }
      ],
      "name": "cancelProposal",
      "outputs": [],
      "stateMutability": "nonpayable",
      "type": "function"
    },
    {
      "inputs": [
        {
          "internalType": "uint256",
          "name": "id",
          "type": "uint256"
        }
      ],
      "name": "cancelTransaction",
      "outputs": [],
      "stateMutability": "nonpayable",
      "type": "function"
    },
    {
      "inputs": [
        {
          "internalType": "uint256",
          "name": "id",
          "type": "uint256"
        }
      ],
      "name": "cancelTransfer",
      "outputs": [],
      "stateMutability": "nonpayable",
      "type": "function"
    },
    {
      "inputs": [
        {
          "internalType": "address",
          "name": "to",
          "type": "address"
        },
        {
          "internalType": "bytes",
          "name": "data",
          "type": "bytes"
        }
      ],
      "name": "createTransaction",
      "outputs": [],
      "stateMutability": "nonpayable",
      "type": "function"
    },
    {
      "inputs": [
        {
          "internalType": "uint256",
          "name": "amount",
          "type": "uint256"
        },
        {
          "internalType": "address payable",
          "name": "to",
          "type": "address"
        },
        {
          "internalType": "address",
          "name": "token",
          "type": "address"
        }
      ],
      "name": "createTransfer",
      "outputs": [],
      "stateMutability": "nonpayable",
      "type": "function"
    },
    {
      "inputs": [],
      "name": "getApprovers",
      "outputs": [
        {
          "internalType": "address[]",
          "name": "",
          "type": "address[]"
        }
      ],
      "stateMutability": "view",
      "type": "function"
    },
    {
      "inputs": [
        {
          "internalType": "uint256",
          "name": "index",
          "type": "uint256"
        }
      ],
      "name": "getTransaction",
      "outputs": [
        {
          "components": [
            {
              "internalType": "uint256",
              "name": "id",
              "type": "uint256"
            },
            {
              "internalType": "address",
              "name": "to",
              "type": "address"
            },
            {
              "internalType": "bytes",
              "name": "data",
              "type": "bytes"
            },
            {
              "internalType": "uint256",
              "name": "approvals",
              "type": "uint256"
            },
            {
              "internalType": "bool",
              "name": "executed",
              "type": "bool"
            }
          ],
          "internalType": "struct MultiSigWallet.Transaction",
          "name": "",
          "type": "tuple"
        }
      ],
      "stateMutability": "view",
      "type": "function"
    },
    {
      "inputs": [
        {
          "internalType": "uint256",
          "name": "index",
          "type": "uint256"
        }
      ],
      "name": "getTransfer",
      "outputs": [
        {
          "components": [
            {
              "internalType": "uint256",
              "name": "id",
              "type": "uint256"
            },
            {
              "internalType": "uint256",
              "name": "amount",
              "type": "uint256"
            },
            {
              "internalType": "address payable",
              "name": "to",
              "type": "address"
            },
            {
              "internalType": "uint256",
              "name": "approvals",
              "type": "uint256"
            },
            {
              "internalType": "bool",
              "name": "sent",
              "type": "bool"
            },
            {
              "internalType": "address",
              "name": "token",
              "type": "address"
            }
          ],
          "internalType": "struct MultiSigWallet.Transfer",
          "name": "",
          "type": "tuple"
        }
      ],
      "stateMutability": "view",
      "type": "function"
    },
    {
      "inputs": [
        {
          "internalType": "address",
          "name": "",
          "type": "address"
        }
      ],
      "name": "isApprover",
      "outputs": [
        {
          "internalType": "bool",
          "name": "",
          "type": "bool"
        }
      ],
      "stateMutability": "view",
      "type": "function"
    },
    {
      "inputs": [],
      "name": "name",
      "outputs": [
        {
          "internalType": "string",
          "name": "",
          "type": "string"
        }
      ],
      "stateMutability": "view",
      "type": "function"
    },
    {
      "inputs": [
        {
          "internalType": "enum MultiSigWallet.ManagementOption",
          "name": "",
          "type": "uint8"
        }
      ],
      "name": "proposals",
      "outputs": [
        {
          "internalType": "address",
          "name": "approver",
          "type": "address"
        },
        {
          "internalType": "uint256",
          "name": "value",
          "type": "uint256"
        },
        {
          "internalType": "uint256",
          "name": "approvals",
          "type": "uint256"
        }
      ],
      "stateMutability": "view",
      "type": "function"
    },
    {
      "inputs": [
        {
          "internalType": "address",
          "name": "_newApprover",
          "type": "address"
        }
      ],
      "name": "proposeAddApprover",
      "outputs": [],
      "stateMutability": "nonpayable",
      "type": "function"
    },
    {
      "inputs": [
        {
          "internalType": "uint256",
          "name": "_newQuorum",
          "type": "uint256"
        }
      ],
      "name": "proposeChangeQuorum",
      "outputs": [],
      "stateMutability": "nonpayable",
      "type": "function"
    },
    {
      "inputs": [
        {
          "internalType": "address",
          "name": "_approverToRemove",
          "type": "address"
        }
      ],
      "name": "proposeRemoveApprover",
      "outputs": [],
      "stateMutability": "nonpayable",
      "type": "function"
    },
    {
      "inputs": [],
      "name": "quorum",
      "outputs": [
        {
          "internalType": "uint256",
          "name": "",
          "type": "uint256"
        }
      ],
      "stateMutability": "view",
      "type": "function"
    },
    {
      "inputs": [],
      "name": "transactionCount",
      "outputs": [
        {
          "internalType": "uint256",
          "name": "",
          "type": "uint256"
        }
      ],
      "stateMutability": "view",
      "type": "function"
    },
    {
      "inputs": [],
      "name": "transferCount",
      "outputs": [
        {
          "internalType": "uint256",
          "name": "",
          "type": "uint256"
        }
      ],
      "stateMutability": "view",
      "type": "function"
    },
    {
      "stateMutability": "payable",
      "type": "receive"
    }
  ],
  "bytecode": "0x6080604052600160065560016007553480156200001b57600080fd5b5060405162005be238038062005be2833981810160405281019062000041919062000563565b600083511162000088576040517f08c379a00000000000000000000000000000000000000000000000000000000081526004016200007f906200065e565b60405180910390fd5b6000821180156200009a575082518211155b620000dc576040517f08c379a0000000000000000000000000000000000000000000000000000000008152600401620000d390620006d0565b60405180910390fd5b8260009080519060200190620000f4929190620001a7565b508160028190555080600390816200010d919062000933565b5060005b83518110156200019d57600180600086848151811062000136576200013562000a1a565b5b602002602001015173ffffffffffffffffffffffffffffffffffffffff1673ffffffffffffffffffffffffffffffffffffffff16815260200190815260200160002060006101000a81548160ff021916908315150217905550808060010191505062000111565b5050505062000a49565b82805482825590600052602060002090810192821562000223579160200282015b82811115620002225782518260006101000a81548173ffffffffffffffffffffffffffffffffffffffff021916908373ffffffffffffffffffffffffffffffffffffffff16021790555091602001919060010190620001c8565b5b50905062000232919062000236565b5090565b5b808211156200025157600081600090555060010162000237565b5090565b6000604051905090565b600080fd5b600080fd5b600080fd5b6000601f19601f8301169050919050565b7f4e487b7100000000000000000000000000000000000000000000000000000000600052604160045260246000fd5b620002b9826200026e565b810181811067ffffffffffffffff82111715620002db57620002da6200027f565b5b80604052505050565b6000620002f062000255565b9050620002fe8282620002ae565b919050565b600067ffffffffffffffff8211156200032157620003206200027f565b5b602082029050602081019050919050565b600080fd5b600073ffffffffffffffffffffffffffffffffffffffff82169050919050565b6000620003648262000337565b9050919050565b620003768162000357565b81146200038257600080fd5b50565b60008151905062000396816200036b565b92915050565b6000620003b3620003ad8462000303565b620002e4565b90508083825260208201905060208402830185811115620003d957620003d862000332565b5b835b81811015620004065780620003f1888262000385565b845260208401935050602081019050620003db565b5050509392505050565b600082601f83011262000428576200042762000269565b5b81516200043a8482602086016200039c565b91505092915050565b6000819050919050565b620004588162000443565b81146200046457600080fd5b50565b60008151905062000478816200044d565b92915050565b600080fd5b600067ffffffffffffffff821115620004a157620004a06200027f565b5b620004ac826200026e565b9050602081019050919050565b60005b83811015620004d9578082015181840152602081019050620004bc565b60008484015250505050565b6000620004fc620004f68462000483565b620002e4565b9050828152602081018484840111156200051b576200051a6200047e565b5b62000528848285620004b9565b509392505050565b600082601f83011262000548576200054762000269565b5b81516200055a848260208601620004e5565b91505092915050565b6000806000606084860312156200057f576200057e6200025f565b5b600084015167ffffffffffffffff811115620005a0576200059f62000264565b5b620005ae8682870162000410565b9350506020620005c18682870162000467565b925050604084015167ffffffffffffffff811115620005e557620005e462000264565b5b620005f38682870162000530565b9150509250925092565b600082825260208201905092915050565b7f417070726f766572732072657175697265640000000000000000000000000000600082015250565b600062000646601283620005fd565b915062000653826200060e565b602082019050919050565b60006020820190508181036000830152620006798162000637565b9050919050565b7f496e76616c69642071756f72756d000000000000000000000000000000000000600082015250565b6000620006b8600e83620005fd565b9150620006c58262000680565b602082019050919050565b60006020820190508181036000830152620006eb81620006a9565b9050919050565b600081519050919050565b7f4e487b7100000000000000000000000000000000000000000000000000000000600052602260045260246000fd5b600060028204905060018216806200074557607f821691505b6020821081036200075b576200075a620006fd565b5b50919050565b60008190508160005260206000209050919050565b60006020601f8301049050919050565b600082821b905092915050565b600060088302620007c57fffffffffffffffffffffffffffffffffffffffffffffffffffffffffffffffff8262000786565b620007d1868362000786565b95508019841693508086168417925050509392505050565b6000819050919050565b6000620008146200080e620008088462000443565b620007e9565b62000443565b9050919050565b6000819050919050565b6200083083620007f3565b620008486200083f826200081b565b84845462000793565b825550505050565b600090565b6200085f62000850565b6200086c81848462000825565b505050565b5b8181101562000894576200088860008262000855565b60018101905062000872565b5050565b601f821115620008e357620008ad8162000761565b620008b88462000776565b81016020851015620008c8578190505b620008e0620008d78562000776565b83018262000871565b50505b505050565b600082821c905092915050565b60006200090860001984600802620008e8565b1980831691505092915050565b6000620009238383620008f5565b9150826002028217905092915050565b6200093e82620006f2565b67ffffffffffffffff8111156200095a57620009596200027f565b5b6200096682546200072c565b6200097382828562000898565b600060209050601f831160018114620009ab576000841562000996578287015190505b620009a2858262000915565b86555062000a12565b601f198416620009bb8662000761565b60005b82811015620009e557848901518255600182019150602085019450602081019050620009be565b8683101562000a05578489015162000a01601f891682620008f5565b8355505b6001600288020188555050505b505050505050565b7f4e487b7100000000000000000000000000000000000000000000000000000000600052603260045260246000fd5b6151898062000a596000396000f3fe6080604052600436106101235760003560e01c80636d218e48116100a0578063b77bf60011610064578063b77bf600146103d7578063c16fe90714610402578063cacca4a01461043f578063d3650fb814610468578063e3d33fc9146104a55761012a565b80636d218e48146102e057806384acf0f51461031d5780638644aadd1461035c5780638fe91b8314610385578063966e52ba146103ae5761012a565b806333ea3dc8116100e757806333ea3dc8146101fd57806342dd3c061461023a578063511fd45a1461026357806359caecb51461028c5780636cb3e8ef146102b55761012a565b806306fdde031461012c5780631540b03f146101575780631703a01814610180578063242232d1146101ab5780633380c0d8146101d45761012a565b3661012a57005b005b34801561013857600080fd5b506101416104d0565b60405161014e9190613906565b60405180910390f35b34801561016357600080fd5b5061017e60048036038101906101799190613990565b61055e565b005b34801561018c57600080fd5b50610195610c11565b6040516101a291906139d6565b60405180910390f35b3480156101b757600080fd5b506101d260048036038101906101cd9190613a1d565b610c17565b005b3480156101e057600080fd5b506101fb60048036038101906101f69190613a1d565b6110bf565b005b34801561020957600080fd5b50610224600480360381019061021f9190613a1d565b611264565b6040516102319190613b4e565b60405180910390f35b34801561024657600080fd5b50610261600480360381019061025c9190613bd5565b6113f8565b005b34801561026f57600080fd5b5061028a60048036038101906102859190613c5a565b611744565b005b34801561029857600080fd5b506102b360048036038101906102ae9190613a1d565b611aaa565b005b3480156102c157600080fd5b506102ca611c4f565b6040516102d79190613d36565b60405180910390f35b3480156102ec57600080fd5b5061030760048036038101906103029190613990565b611cdd565b6040516103149190613d67565b60405180910390f35b34801561032957600080fd5b50610344600480360381019061033f9190613c5a565b611cfd565b60405161035393929190613d91565b60405180910390f35b34801561036857600080fd5b50610383600480360381019061037e9190613a1d565b611d47565b005b34801561039157600080fd5b506103ac60048036038101906103a79190613e06565b6121a9565b005b3480156103ba57600080fd5b506103d560048036038101906103d09190613990565b61250a565b005b3480156103e357600080fd5b506103ec612d38565b6040516103f991906139d6565b60405180910390f35b34801561040e57600080fd5b5061042960048036038101906104249190613a1d565b612d42565b6040516104369190613ee3565b60405180910390f35b34801561044b57600080fd5b5061046660048036038101906104619190613a1d565b612ea4565b005b34801561047457600080fd5b5061048f600480360381019061048a9190613a1d565b6134b5565b60405161049c9190613efe565b60405180910390f35b3480156104b157600080fd5b506104ba6134f4565b6040516104c791906139d6565b60405180910390f35b600380546104dd90613f48565b80601f016020809104026020016040519081016040528092919081815260200182805461050990613f48565b80156105565780601f1061052b57610100808354040283529160200191610556565b820191906000526020600020905b81548152906001019060200180831161053957829003601f168201915b505050505081565b600160003373ffffffffffffffffffffffffffffffffffffffff1673ffffffffffffffffffffffffffffffffffffffff16815260200190815260200160002060009054906101000a900460ff166105ea576040517f08c379a00000000000000000000000000000000000000000000000000000000081526004016105e190613fc5565b60405180910390fd5b600073ffffffffffffffffffffffffffffffffffffffff168173ffffffffffffffffffffffffffffffffffffffff1603610659576040517f08c379a000000000000000000000000000000000000000000000000000000000815260040161065090614031565b60405180910390fd5b600160008273ffffffffffffffffffffffffffffffffffffffff1673ffffffffffffffffffffffffffffffffffffffff16815260200190815260200160002060009054906101000a900460ff16156106e6576040517f08c379a00000000000000000000000000000000000000000000000000000000081526004016106dd9061409d565b60405180910390fd5b6000600a60008060028111156106ff576106fe6140bd565b5b6002811115610711576107106140bd565b5b815260200190815260200160002090508060030160003373ffffffffffffffffffffffffffffffffffffffff1673ffffffffffffffffffffffffffffffffffffffff16815260200190815260200160002060009054906101000a900460ff16156107b0576040517f08c379a00000000000000000000000000000000000000000000000000000000081526004016107a790614138565b60405180910390fd5b600073ffffffffffffffffffffffffffffffffffffffff168160000160009054906101000a900473ffffffffffffffffffffffffffffffffffffffff1673ffffffffffffffffffffffffffffffffffffffff160361089357818160000160006101000a81548173ffffffffffffffffffffffffffffffffffffffff021916908373ffffffffffffffffffffffffffffffffffffffff1602179055508173ffffffffffffffffffffffffffffffffffffffff167f42647c31d6f3a1e85838fff717d501a7d46492c2e6b20bf13dccb758204ffac160405160405180910390a2610926565b8173ffffffffffffffffffffffffffffffffffffffff168160000160009054906101000a900473ffffffffffffffffffffffffffffffffffffffff1673ffffffffffffffffffffffffffffffffffffffff1614610925576040517f08c379a000000000000000000000000000000000000000000000000000000000815260040161091c906141ca565b60405180910390fd5b5b80600201600081548092919061093b90614219565b919050555060018160030160003373ffffffffffffffffffffffffffffffffffffffff1673ffffffffffffffffffffffffffffffffffffffff16815260200190815260200160002060006101000a81548160ff0219169083151502179055508173ffffffffffffffffffffffffffffffffffffffff167f3ac5044483cae9c8ac5ca932b0f27d57fb798c8904fccd0df1eb02146b26b2aa60405160405180910390a2600254816002015410610c0d576000829080600181540180825580915050600190039060005260206000200160009091909190916101000a81548173ffffffffffffffffffffffffffffffffffffffff021916908373ffffffffffffffffffffffffffffffffffffffff16021790555060018060008473ffffffffffffffffffffffffffffffffffffffff1673ffffffffffffffffffffffffffffffffffffffff16815260200190815260200160002060006101000a81548160ff0219169083151502179055508173ffffffffffffffffffffffffffffffffffffffff167f835bddf1ceee4956e4329af9edf018523c1191238187a597453f6020bcadb04260405160405180910390a260005b8160020154811015610b9a576000826003016000808481548110610b1157610b10614261565b5b9060005260206000200160009054906101000a900473ffffffffffffffffffffffffffffffffffffffff1673ffffffffffffffffffffffffffffffffffffffff1673ffffffffffffffffffffffffffffffffffffffff16815260200190815260200160002060006101000a81548160ff0219169083151502179055508080600101915050610aea565b50600a6000806002811115610bb257610bb16140bd565b5b6002811115610bc457610bc36140bd565b5b8152602001908152602001600020600080820160006101000a81549073ffffffffffffffffffffffffffffffffffffffff02191690556001820160009055600282016000905550505b5050565b60025481565b600160003373ffffffffffffffffffffffffffffffffffffffff1673ffffffffffffffffffffffffffffffffffffffff16815260200190815260200160002060009054906101000a900460ff16610ca3576040517f08c379a0000000000000000000000000000000000000000000000000000000008152600401610c9a90613fc5565b60405180910390fd5b600081118015610cb4575060065481105b610cf3576040517f08c379a0000000000000000000000000000000000000000000000000000000008152600401610cea906142dc565b60405180910390fd5b600015156005600083815260200190815260200160002060040160009054906101000a900460ff16151514610d5d576040517f08c379a0000000000000000000000000000000000000000000000000000000008152600401610d5490614348565b60405180910390fd5b60001515600960003373ffffffffffffffffffffffffffffffffffffffff1673ffffffffffffffffffffffffffffffffffffffff168152602001908152602001600020600083815260200190815260200160002060009054906101000a900460ff16151514610e01576040517f08c379a0000000000000000000000000000000000000000000000000000000008152600401610df8906143b4565b60405180910390fd5b6001600960003373ffffffffffffffffffffffffffffffffffffffff1673ffffffffffffffffffffffffffffffffffffffff168152602001908152602001600020600083815260200190815260200160002060006101000a81548160ff021916908315150217905550600560008281526020019081526020016000206003016000815480929190610e9190614219565b91905055503373ffffffffffffffffffffffffffffffffffffffff16817f924813d717e221b5f46dcd8a56da1679e4612584ab3237d55e5faabf6f6a307960405160405180910390a36002546005600083815260200190815260200160002060030154106110bc5760016005600083815260200190815260200160002060040160006101000a81548160ff02191690831515021790555060006005600083815260200190815260200160002060010160009054906101000a900473ffffffffffffffffffffffffffffffffffffffff1673ffffffffffffffffffffffffffffffffffffffff1660056000848152602001908152602001600020600201604051610f9a9190614477565b6000604051808303816000865af19150503d8060008114610fd7576040519150601f19603f3d011682016040523d82523d6000602084013e610fdc565b606091505b5050905080611020576040517f08c379a0000000000000000000000000000000000000000000000000000000008152600401611017906144da565b60405180910390fd5b6005600083815260200190815260200160002060010160009054906101000a900473ffffffffffffffffffffffffffffffffffffffff1673ffffffffffffffffffffffffffffffffffffffff16827f518df7417ea3ad72d40e6f8bd20a6344a813b8b5e5cc0638f8cbd1487107c339600560008681526020019081526020016000206002016040516110b2919061458f565b60405180910390a3505b50565b600160003373ffffffffffffffffffffffffffffffffffffffff1673ffffffffffffffffffffffffffffffffffffffff16815260200190815260200160002060009054906101000a900460ff1661114b576040517f08c379a000000000000000000000000000000000000000000000000000000000815260040161114290613fc5565b60405180910390fd5b60008111801561115c575060065481105b61119b576040517f08c379a0000000000000000000000000000000000000000000000000000000008152600401611192906142dc565b60405180910390fd5b600015156005600083815260200190815260200160002060040160009054906101000a900460ff16151514611205576040517f08c379a00000000000000000000000000000000000000000000000000000000081526004016111fc90614348565b60405180910390fd5b60016005600083815260200190815260200160002060040160006101000a81548160ff021916908315150217905550807f956fb32199d8b882b2039a14e1be35ab14f7a80b9089fc223f14b43937173e6060405160405180910390a250565b61126c6137cb565b60008211801561127d575060065482105b6112bc576040517f08c379a00000000000000000000000000000000000000000000000000000000081526004016112b3906142dc565b60405180910390fd5b600560008381526020019081526020016000206040518060a0016040529081600082015481526020016001820160009054906101000a900473ffffffffffffffffffffffffffffffffffffffff1673ffffffffffffffffffffffffffffffffffffffff1673ffffffffffffffffffffffffffffffffffffffff16815260200160028201805461134a90613f48565b80601f016020809104026020016040519081016040528092919081815260200182805461137690613f48565b80156113c35780601f10611398576101008083540402835291602001916113c3565b820191906000526020600020905b8154815290600101906020018083116113a657829003601f168201915b50505050508152602001600382015481526020016004820160009054906101000a900460ff1615151515815250509050919050565b600160003373ffffffffffffffffffffffffffffffffffffffff1673ffffffffffffffffffffffffffffffffffffffff16815260200190815260200160002060009054906101000a900460ff16611484576040517f08c379a000000000000000000000000000000000000000000000000000000000815260040161147b90613fc5565b60405180910390fd5b600073ffffffffffffffffffffffffffffffffffffffff168373ffffffffffffffffffffffffffffffffffffffff16036114f3576040517f08c379a00000000000000000000000000000000000000000000000000000000081526004016114ea906145fd565b60405180910390fd5b6040518060a0016040528060065481526020018473ffffffffffffffffffffffffffffffffffffffff16815260200183838080601f016020809104026020016040519081016040528093929190818152602001838380828437600081840152601f19601f82011690508083019250505050505050815260200160018152602001600015158152506005600060065481526020019081526020016000206000820151816000015560208201518160010160006101000a81548173ffffffffffffffffffffffffffffffffffffffff021916908373ffffffffffffffffffffffffffffffffffffffff16021790555060408201518160020190816115f591906147e3565b506060820151816003015560808201518160040160006101000a81548160ff0219169083151502179055509050506001600960003373ffffffffffffffffffffffffffffffffffffffff1673ffffffffffffffffffffffffffffffffffffffff1681526020019081526020016000206000600654815260200190815260200160002060006101000a81548160ff0219169083151502179055508273ffffffffffffffffffffffffffffffffffffffff166006547f6d1362c103e71c81f65f9b70be8ec9e1befd6b06cd92a7a3a38d1a4eebf971d584846040516116d99291906148f1565b60405180910390a33373ffffffffffffffffffffffffffffffffffffffff166006547f924813d717e221b5f46dcd8a56da1679e4612584ab3237d55e5faabf6f6a307960405160405180910390a36006600081548092919061173a90614219565b9190505550505050565b600160003373ffffffffffffffffffffffffffffffffffffffff1673ffffffffffffffffffffffffffffffffffffffff16815260200190815260200160002060009054906101000a900460ff166117d0576040517f08c379a00000000000000000000000000000000000000000000000000000000081526004016117c790613fc5565b60405180910390fd5b600073ffffffffffffffffffffffffffffffffffffffff16600a60008360028111156117ff576117fe6140bd565b5b6002811115611811576118106140bd565b5b815260200190815260200160002060000160009054906101000a900473ffffffffffffffffffffffffffffffffffffffff1673ffffffffffffffffffffffffffffffffffffffff161480156118a057506000600a600083600281111561187a576118796140bd565b5b600281111561188c5761188b6140bd565b5b815260200190815260200160002060010154145b156118e0576040517f08c379a00000000000000000000000000000000000000000000000000000000081526004016118d790614961565b60405180910390fd5b60005b600a60008360028111156118fa576118f96140bd565b5b600281111561190c5761190b6140bd565b5b8152602001908152602001600020600201548110156119f657600a600083600281111561193c5761193b6140bd565b5b600281111561194e5761194d6140bd565b5b8152602001908152602001600020600301600080838154811061197457611973614261565b5b9060005260206000200160009054906101000a900473ffffffffffffffffffffffffffffffffffffffff1673ffffffffffffffffffffffffffffffffffffffff1673ffffffffffffffffffffffffffffffffffffffff16815260200190815260200160002060006101000a81549060ff021916905580806001019150506118e3565b50600a6000826002811115611a0e57611a0d6140bd565b5b6002811115611a2057611a1f6140bd565b5b8152602001908152602001600020600080820160006101000a81549073ffffffffffffffffffffffffffffffffffffffff0219169055600182016000905560028201600090555050806002811115611a7b57611a7a6140bd565b5b7f1fb4d9c77ff0707353cf17c9a3b2465f4474b34551a52be00576402b740bf5af60405160405180910390a250565b600160003373ffffffffffffffffffffffffffffffffffffffff1673ffffffffffffffffffffffffffffffffffffffff16815260200190815260200160002060009054906101000a900460ff16611b36576040517f08c379a0000000000000000000000000000000000000000000000000000000008152600401611b2d90613fc5565b60405180910390fd5b600081118015611b47575060075481105b611b86576040517f08c379a0000000000000000000000000000000000000000000000000000000008152600401611b7d906149cd565b60405180910390fd5b600015156004600083815260200190815260200160002060040160009054906101000a900460ff16151514611bf0576040517f08c379a0000000000000000000000000000000000000000000000000000000008152600401611be790614a39565b60405180910390fd5b60016004600083815260200190815260200160002060040160006101000a81548160ff021916908315150217905550807f80325e888c1c82b732ed61a3aaa950ae32a233290f74a648d1a333966645034560405160405180910390a250565b60606000805480602002602001604051908101604052809291908181526020018280548015611cd357602002820191906000526020600020905b8160009054906101000a900473ffffffffffffffffffffffffffffffffffffffff1673ffffffffffffffffffffffffffffffffffffffff1681526020019060010190808311611c89575b5050505050905090565b60016020528060005260406000206000915054906101000a900460ff1681565b600a6020528060005260406000206000915090508060000160009054906101000a900473ffffffffffffffffffffffffffffffffffffffff16908060010154908060020154905083565b600160003373ffffffffffffffffffffffffffffffffffffffff1673ffffffffffffffffffffffffffffffffffffffff16815260200190815260200160002060009054906101000a900460ff16611dd3576040517f08c379a0000000000000000000000000000000000000000000000000000000008152600401611dca90613fc5565b60405180910390fd5b600081118015611de857506000805490508111155b611e27576040517f08c379a0000000000000000000000000000000000000000000000000000000008152600401611e1e90614aa5565b60405180910390fd5b6000600a6000600280811115611e4057611e3f6140bd565b5b6002811115611e5257611e516140bd565b5b815260200190815260200160002090508060030160003373ffffffffffffffffffffffffffffffffffffffff1673ffffffffffffffffffffffffffffffffffffffff16815260200190815260200160002060009054906101000a900460ff1615611ef1576040517f08c379a0000000000000000000000000000000000000000000000000000000008152600401611ee890614138565b60405180910390fd5b6000816001015403611f42578181600101819055507f9e7e02907524a5c2dd49e4f2db2c09d874263822ebbb773b425b0db752aeb0ed82604051611f3591906139d6565b60405180910390a1611f89565b81816001015414611f88576040517f08c379a0000000000000000000000000000000000000000000000000000000008152600401611f7f90614b37565b60405180910390fd5b5b806002016000815480929190611f9e90614219565b919050555060018160030160003373ffffffffffffffffffffffffffffffffffffffff1673ffffffffffffffffffffffffffffffffffffffff16815260200190815260200160002060006101000a81548160ff0219169083151502179055507f80d779629502e3b7ac3bfc4d6c5cd5baeaa4fd5fd84049dcacc592206e5375db8260405161202c91906139d6565b60405180910390a16002548160020154106121a557816002819055507f027863d12a407097e086a48e36475bfc859d0b200b7e6f65b5fd3b218e46632e8260405161207791906139d6565b60405180910390a160005b81600201548110156121325760008260030160008084815481106120a9576120a8614261565b5b9060005260206000200160009054906101000a900473ffffffffffffffffffffffffffffffffffffffff1673ffffffffffffffffffffffffffffffffffffffff1673ffffffffffffffffffffffffffffffffffffffff16815260200190815260200160002060006101000a81548160ff0219169083151502179055508080600101915050612082565b50600a600060028081111561214a576121496140bd565b5b600281111561215c5761215b6140bd565b5b8152602001908152602001600020600080820160006101000a81549073ffffffffffffffffffffffffffffffffffffffff02191690556001820160009055600282016000905550505b5050565b600160003373ffffffffffffffffffffffffffffffffffffffff1673ffffffffffffffffffffffffffffffffffffffff16815260200190815260200160002060009054906101000a900460ff16612235576040517f08c379a000000000000000000000000000000000000000000000000000000000815260040161222c90613fc5565b60405180910390fd5b60008311612278576040517f08c379a000000000000000000000000000000000000000000000000000000000815260040161226f90614bc9565b60405180910390fd5b600073ffffffffffffffffffffffffffffffffffffffff168273ffffffffffffffffffffffffffffffffffffffff16036122e7576040517f08c379a00000000000000000000000000000000000000000000000000000000081526004016122de906145fd565b60405180910390fd5b600073ffffffffffffffffffffffffffffffffffffffff168173ffffffffffffffffffffffffffffffffffffffff1603612356576040517f08c379a000000000000000000000000000000000000000000000000000000000815260040161234d90614c35565b60405180910390fd5b6040518060c0016040528060075481526020018481526020018373ffffffffffffffffffffffffffffffffffffffff168152602001600081526020016000151581526020018273ffffffffffffffffffffffffffffffffffffffff16815250600460006007548152602001908152602001600020600082015181600001556020820151816001015560408201518160020160006101000a81548173ffffffffffffffffffffffffffffffffffffffff021916908373ffffffffffffffffffffffffffffffffffffffff1602179055506060820151816003015560808201518160040160006101000a81548160ff02191690831515021790555060a08201518160040160016101000a81548173ffffffffffffffffffffffffffffffffffffffff021916908373ffffffffffffffffffffffffffffffffffffffff1602179055509050508173ffffffffffffffffffffffffffffffffffffffff167fb7123625d8f7e8a37776893e56b7a4b59d0858149edeb7424421360b57d0464260075485846040516124e593929190614c55565b60405180910390a26007600081548092919061250090614219565b9190505550505050565b600160003373ffffffffffffffffffffffffffffffffffffffff1673ffffffffffffffffffffffffffffffffffffffff16815260200190815260200160002060009054906101000a900460ff16612596576040517f08c379a000000000000000000000000000000000000000000000000000000000815260040161258d90613fc5565b60405180910390fd5b600160008273ffffffffffffffffffffffffffffffffffffffff1673ffffffffffffffffffffffffffffffffffffffff16815260200190815260200160002060009054906101000a900460ff16612622576040517f08c379a000000000000000000000000000000000000000000000000000000000815260040161261990614cd8565b60405180910390fd5b60025460016000805490506126379190614cf8565b1015612678576040517f08c379a000000000000000000000000000000000000000000000000000000000815260040161266f90614d78565b60405180910390fd5b3373ffffffffffffffffffffffffffffffffffffffff168173ffffffffffffffffffffffffffffffffffffffff16036126e6576040517f08c379a00000000000000000000000000000000000000000000000000000000081526004016126dd90614de4565b60405180910390fd5b6000600a600060016002811115612700576126ff6140bd565b5b6002811115612712576127116140bd565b5b815260200190815260200160002090508060030160003373ffffffffffffffffffffffffffffffffffffffff1673ffffffffffffffffffffffffffffffffffffffff16815260200190815260200160002060009054906101000a900460ff16156127b1576040517f08c379a00000000000000000000000000000000000000000000000000000000081526004016127a890614138565b60405180910390fd5b600073ffffffffffffffffffffffffffffffffffffffff168160000160009054906101000a900473ffffffffffffffffffffffffffffffffffffffff1673ffffffffffffffffffffffffffffffffffffffff160361289457818160000160006101000a81548173ffffffffffffffffffffffffffffffffffffffff021916908373ffffffffffffffffffffffffffffffffffffffff1602179055508173ffffffffffffffffffffffffffffffffffffffff167f4b8b515a0ad45cf491425fe32847314d9854027c1e77d028798d57c77a45dc9860405160405180910390a2612927565b8173ffffffffffffffffffffffffffffffffffffffff168160000160009054906101000a900473ffffffffffffffffffffffffffffffffffffffff1673ffffffffffffffffffffffffffffffffffffffff1614612926576040517f08c379a000000000000000000000000000000000000000000000000000000000815260040161291d906141ca565b60405180910390fd5b5b80600201600081548092919061293c90614219565b919050555060018160030160003373ffffffffffffffffffffffffffffffffffffffff1673ffffffffffffffffffffffffffffffffffffffff16815260200190815260200160002060006101000a81548160ff0219169083151502179055508173ffffffffffffffffffffffffffffffffffffffff167f55cfd44c39fdccd1437ec885383179b57ca168f75ac2d7623078e12457b0445a60405160405180910390a2600254816002015410612d345760005b600080549050811015612c0c578273ffffffffffffffffffffffffffffffffffffffff1660008281548110612a2657612a25614261565b5b9060005260206000200160009054906101000a900473ffffffffffffffffffffffffffffffffffffffff1673ffffffffffffffffffffffffffffffffffffffff1603612bff5760006001600080549050612a809190614cf8565b81548110612a9157612a90614261565b5b9060005260206000200160009054906101000a900473ffffffffffffffffffffffffffffffffffffffff1660008281548110612ad057612acf614261565b5b9060005260206000200160006101000a81548173ffffffffffffffffffffffffffffffffffffffff021916908373ffffffffffffffffffffffffffffffffffffffff1602179055506000805480612b2a57612b29614e04565b5b6001900381819060005260206000200160006101000a81549073ffffffffffffffffffffffffffffffffffffffff021916905590556000600160008573ffffffffffffffffffffffffffffffffffffffff1673ffffffffffffffffffffffffffffffffffffffff16815260200190815260200160002060006101000a81548160ff0219169083151502179055508273ffffffffffffffffffffffffffffffffffffffff167fc6e35658c76ecdde40a54f31a91fb7c8615e9893cc0885584b27bb3433270d4660405160405180910390a2612c0c565b80806001019150506129ee565b5060005b8160020154811015612cc0576000826003016000808481548110612c3757612c36614261565b5b9060005260206000200160009054906101000a900473ffffffffffffffffffffffffffffffffffffffff1673ffffffffffffffffffffffffffffffffffffffff1673ffffffffffffffffffffffffffffffffffffffff16815260200190815260200160002060006101000a81548160ff0219169083151502179055508080600101915050612c10565b50600a600060016002811115612cd957612cd86140bd565b5b6002811115612ceb57612cea6140bd565b5b8152602001908152602001600020600080820160006101000a81549073ffffffffffffffffffffffffffffffffffffffff02191690556001820160009055600282016000905550505b5050565b6000600654905090565b612d4a613812565b600082118015612d5b575060075482105b612d9a576040517f08c379a0000000000000000000000000000000000000000000000000000000008152600401612d91906149cd565b60405180910390fd5b600460008381526020019081526020016000206040518060c001604052908160008201548152602001600182015481526020016002820160009054906101000a900473ffffffffffffffffffffffffffffffffffffffff1673ffffffffffffffffffffffffffffffffffffffff1673ffffffffffffffffffffffffffffffffffffffff168152602001600382015481526020016004820160009054906101000a900460ff161515151581526020016004820160019054906101000a900473ffffffffffffffffffffffffffffffffffffffff1673ffffffffffffffffffffffffffffffffffffffff1673ffffffffffffffffffffffffffffffffffffffff16815250509050919050565b600160003373ffffffffffffffffffffffffffffffffffffffff1673ffffffffffffffffffffffffffffffffffffffff16815260200190815260200160002060009054906101000a900460ff16612f30576040517f08c379a0000000000000000000000000000000000000000000000000000000008152600401612f2790613fc5565b60405180910390fd5b600081118015612f41575060075481105b612f80576040517f08c379a0000000000000000000000000000000000000000000000000000000008152600401612f77906149cd565b60405180910390fd5b600015156004600083815260200190815260200160002060040160009054906101000a900460ff16151514612fea576040517f08c379a0000000000000000000000000000000000000000000000000000000008152600401612fe190614a39565b60405180910390fd5b60001515600860003373ffffffffffffffffffffffffffffffffffffffff1673ffffffffffffffffffffffffffffffffffffffff168152602001908152602001600020600083815260200190815260200160002060009054906101000a900460ff1615151461308e576040517f08c379a000000000000000000000000000000000000000000000000000000000815260040161308590614e7f565b60405180910390fd5b6001600860003373ffffffffffffffffffffffffffffffffffffffff1673ffffffffffffffffffffffffffffffffffffffff168152602001908152602001600020600083815260200190815260200160002060006101000a81548160ff02191690831515021790555060046000828152602001908152602001600020600301600081548092919061311e90614219565b91905055503373ffffffffffffffffffffffffffffffffffffffff16817fa4269914b1afdc8f7e4c3aa6794f0de6e37f00884fb97ea9288a1d68ba7de67b60405160405180910390a36002546004600083815260200190815260200160002060030154106134b25760016004600083815260200190815260200160002060040160006101000a81548160ff02191690831515021790555060006004600083815260200190815260200160002060020160009054906101000a900473ffffffffffffffffffffffffffffffffffffffff16905060006004600084815260200190815260200160002060010154905060006004600085815260200190815260200160002060040160019054906101000a900473ffffffffffffffffffffffffffffffffffffffff169050600173ffffffffffffffffffffffffffffffffffffffff168173ffffffffffffffffffffffffffffffffffffffff160361336f57814710156132bd576040517f08c379a00000000000000000000000000000000000000000000000000000000081526004016132b490614eeb565b60405180910390fd5b60008373ffffffffffffffffffffffffffffffffffffffff16836040516132e390614f31565b60006040518083038185875af1925050503d8060008114613320576040519150601f19603f3d011682016040523d82523d6000602084013e613325565b606091505b5050905080613369576040517f08c379a000000000000000000000000000000000000000000000000000000000815260040161336090614f92565b60405180910390fd5b5061345d565b6000819050828173ffffffffffffffffffffffffffffffffffffffff166370a08231306040518263ffffffff1660e01b81526004016133ae9190613efe565b602060405180830381865afa1580156133cb573d6000803e3d6000fd5b505050506040513d601f19601f820116820180604052508101906133ef9190614fc7565b1015613430576040517f08c379a000000000000000000000000000000000000000000000000000000000815260040161342790615040565b60405180910390fd5b61345b84848373ffffffffffffffffffffffffffffffffffffffff166134fe9092919063ffffffff16565b505b8273ffffffffffffffffffffffffffffffffffffffff16847f74a07143a801f8398ed57d254a17757f19c77f62431c3918e5061160b143448684846040516134a6929190615060565b60405180910390a35050505b50565b600081815481106134c557600080fd5b906000526020600020016000915054906101000a900473ffffffffffffffffffffffffffffffffffffffff1681565b6000600754905090565b613578838473ffffffffffffffffffffffffffffffffffffffff1663a9059cbb8585604051602401613531929190615089565b604051602081830303815290604052915060e01b6020820180517bffffffffffffffffffffffffffffffffffffffffffffffffffffffff838183161783525050505061357d565b505050565b60006135a8828473ffffffffffffffffffffffffffffffffffffffff1661361490919063ffffffff16565b905060008151141580156135cd5750808060200190518101906135cb91906150de565b155b1561360f57826040517f5274afe70000000000000000000000000000000000000000000000000000000081526004016136069190613efe565b60405180910390fd5b505050565b60606136228383600061362a565b905092915050565b60608147101561367157306040517fcd7860590000000000000000000000000000000000000000000000000000000081526004016136689190613efe565b60405180910390fd5b6000808573ffffffffffffffffffffffffffffffffffffffff16848660405161369a919061513c565b60006040518083038185875af1925050503d80600081146136d7576040519150601f19603f3d011682016040523d82523d6000602084013e6136dc565b606091505b50915091506136ec8683836136f7565b925050509392505050565b60608261370c5761370782613786565b61377e565b60008251148015613734575060008473ffffffffffffffffffffffffffffffffffffffff163b145b1561377657836040517f9996b31500000000000000000000000000000000000000000000000000000000815260040161376d9190613efe565b60405180910390fd5b81905061377f565b5b9392505050565b6000815111156137995780518082602001fd5b6040517f1425ea4200000000000000000000000000000000000000000000000000000000815260040160405180910390fd5b6040518060a0016040528060008152602001600073ffffffffffffffffffffffffffffffffffffffff16815260200160608152602001600081526020016000151581525090565b6040518060c001604052806000815260200160008152602001600073ffffffffffffffffffffffffffffffffffffffff16815260200160008152602001600015158152602001600073ffffffffffffffffffffffffffffffffffffffff1681525090565b600081519050919050565b600082825260208201905092915050565b60005b838110156138b0578082015181840152602081019050613895565b60008484015250505050565b6000601f19601f8301169050919050565b60006138d882613876565b6138e28185613881565b93506138f2818560208601613892565b6138fb816138bc565b840191505092915050565b6000602082019050818103600083015261392081846138cd565b905092915050565b600080fd5b600080fd5b600073ffffffffffffffffffffffffffffffffffffffff82169050919050565b600061395d82613932565b9050919050565b61396d81613952565b811461397857600080fd5b50565b60008135905061398a81613964565b92915050565b6000602082840312156139a6576139a5613928565b5b60006139b48482850161397b565b91505092915050565b6000819050919050565b6139d0816139bd565b82525050565b60006020820190506139eb60008301846139c7565b92915050565b6139fa816139bd565b8114613a0557600080fd5b50565b600081359050613a17816139f1565b92915050565b600060208284031215613a3357613a32613928565b5b6000613a4184828501613a08565b91505092915050565b613a53816139bd565b82525050565b613a6281613952565b82525050565b600081519050919050565b600082825260208201905092915050565b6000613a8f82613a68565b613a998185613a73565b9350613aa9818560208601613892565b613ab2816138bc565b840191505092915050565b60008115159050919050565b613ad281613abd565b82525050565b600060a083016000830151613af06000860182613a4a565b506020830151613b036020860182613a59565b5060408301518482036040860152613b1b8282613a84565b9150506060830151613b306060860182613a4a565b506080830151613b436080860182613ac9565b508091505092915050565b60006020820190508181036000830152613b688184613ad8565b905092915050565b600080fd5b600080fd5b600080fd5b60008083601f840112613b9557613b94613b70565b5b8235905067ffffffffffffffff811115613bb257613bb1613b75565b5b602083019150836001820283011115613bce57613bcd613b7a565b5b9250929050565b600080600060408486031215613bee57613bed613928565b5b6000613bfc8682870161397b565b935050602084013567ffffffffffffffff811115613c1d57613c1c61392d565b5b613c2986828701613b7f565b92509250509250925092565b60038110613c4257600080fd5b50565b600081359050613c5481613c35565b92915050565b600060208284031215613c7057613c6f613928565b5b6000613c7e84828501613c45565b91505092915050565b600081519050919050565b600082825260208201905092915050565b6000819050602082019050919050565b6000613cbf8383613a59565b60208301905092915050565b6000602082019050919050565b6000613ce382613c87565b613ced8185613c92565b9350613cf883613ca3565b8060005b83811015613d29578151613d108882613cb3565b9750613d1b83613ccb565b925050600181019050613cfc565b5085935050505092915050565b60006020820190508181036000830152613d508184613cd8565b905092915050565b613d6181613abd565b82525050565b6000602082019050613d7c6000830184613d58565b92915050565b613d8b81613952565b82525050565b6000606082019050613da66000830186613d82565b613db360208301856139c7565b613dc060408301846139c7565b949350505050565b6000613dd382613932565b9050919050565b613de381613dc8565b8114613dee57600080fd5b50565b600081359050613e0081613dda565b92915050565b600080600060608486031215613e1f57613e1e613928565b5b6000613e2d86828701613a08565b9350506020613e3e86828701613df1565b9250506040613e4f8682870161397b565b9150509250925092565b613e6281613dc8565b82525050565b60c082016000820151613e7e6000850182613a4a565b506020820151613e916020850182613a4a565b506040820151613ea46040850182613e59565b506060820151613eb76060850182613a4a565b506080820151613eca6080850182613ac9565b5060a0820151613edd60a0850182613a59565b50505050565b600060c082019050613ef86000830184613e68565b92915050565b6000602082019050613f136000830184613d82565b92915050565b7f4e487b7100000000000000000000000000000000000000000000000000000000600052602260045260246000fd5b60006002820490506001821680613f6057607f821691505b602082108103613f7357613f72613f19565b5b50919050565b7f4f6e6c7920617070726f76657220616c6c6f7765640000000000000000000000600082015250565b6000613faf601583613881565b9150613fba82613f79565b602082019050919050565b60006020820190508181036000830152613fde81613fa2565b9050919050565b7f496e76616c696420617070726f76657220616464726573730000000000000000600082015250565b600061401b601883613881565b915061402682613fe5565b602082019050919050565b6000602082019050818103600083015261404a8161400e565b9050919050565b7f416c726561647920616e20617070726f76657200000000000000000000000000600082015250565b6000614087601383613881565b915061409282614051565b602082019050919050565b600060208201905081810360008301526140b68161407a565b9050919050565b7f4e487b7100000000000000000000000000000000000000000000000000000000600052602160045260246000fd5b7f43616e6e6f7420617070726f76652070726f706f73616c207477696365000000600082015250565b6000614122601d83613881565b915061412d826140ec565b602082019050919050565b6000602082019050818103600083015261415181614115565b9050919050565b7f50726576696f757320617070726f76657220766f74696e6720776173206e6f7460008201527f20656e6465640000000000000000000000000000000000000000000000000000602082015250565b60006141b4602683613881565b91506141bf82614158565b604082019050919050565b600060208201905081810360008301526141e3816141a7565b9050919050565b7f4e487b7100000000000000000000000000000000000000000000000000000000600052601160045260246000fd5b6000614224826139bd565b91507fffffffffffffffffffffffffffffffffffffffffffffffffffffffffffffffff8203614256576142556141ea565b5b600182019050919050565b7f4e487b7100000000000000000000000000000000000000000000000000000000600052603260045260246000fd5b7f5472616e73616374696f6e20646f6573206e6f74206578697374000000000000600082015250565b60006142c6601a83613881565b91506142d182614290565b602082019050919050565b600060208201905081810360008301526142f5816142b9565b9050919050565b7f5472616e73616374696f6e20616c726561647920657865637574656400000000600082015250565b6000614332601c83613881565b915061433d826142fc565b602082019050919050565b6000602082019050818103600083015261436181614325565b9050919050565b7f43616e6e6f7420617070726f7665207472616e73616374696f6e207477696365600082015250565b600061439e602083613881565b91506143a982614368565b602082019050919050565b600060208201905081810360008301526143cd81614391565b9050919050565b600081905092915050565b60008190508160005260206000209050919050565b6000815461440181613f48565b61440b81866143d4565b94506001821660008114614426576001811461443b5761446e565b60ff198316865281151582028601935061446e565b614444856143df565b60005b8381101561446657815481890152600182019150602081019050614447565b838801955050505b50505092915050565b600061448382846143f4565b915081905092915050565b7f5472616e73616374696f6e20657865637574696f6e206661696c656400000000600082015250565b60006144c4601c83613881565b91506144cf8261448e565b602082019050919050565b600060208201905081810360008301526144f3816144b7565b9050919050565b600082825260208201905092915050565b6000815461451881613f48565b61452281866144fa565b9450600182166000811461453d576001811461455357614586565b60ff198316865281151560200286019350614586565b61455c856143df565b60005b8381101561457e5781548189015260018201915060208101905061455f565b808801955050505b50505092915050565b600060208201905081810360008301526145a9818461450b565b905092915050565b7f496e76616c696420726563697069656e74206164647265737300000000000000600082015250565b60006145e7601983613881565b91506145f2826145b1565b602082019050919050565b60006020820190508181036000830152614616816145da565b9050919050565b7f4e487b7100000000000000000000000000000000000000000000000000000000600052604160045260246000fd5b60006020601f8301049050919050565b600082821b905092915050565b6000600883026146997fffffffffffffffffffffffffffffffffffffffffffffffffffffffffffffffff8261465c565b6146a3868361465c565b95508019841693508086168417925050509392505050565b6000819050919050565b60006146e06146db6146d6846139bd565b6146bb565b6139bd565b9050919050565b6000819050919050565b6146fa836146c5565b61470e614706826146e7565b848454614669565b825550505050565b600090565b614723614716565b61472e8184846146f1565b505050565b5b818110156147525761474760008261471b565b600181019050614734565b5050565b601f82111561479757614768816143df565b6147718461464c565b81016020851015614780578190505b61479461478c8561464c565b830182614733565b50505b505050565b600082821c905092915050565b60006147ba6000198460080261479c565b1980831691505092915050565b60006147d383836147a9565b9150826002028217905092915050565b6147ec82613a68565b67ffffffffffffffff8111156148055761480461461d565b5b61480f8254613f48565b61481a828285614756565b600060209050601f83116001811461484d576000841561483b578287015190505b61484585826147c7565b8655506148ad565b601f19841661485b866143df565b60005b828110156148835784890151825560018201915060208501945060208101905061485e565b868310156148a0578489015161489c601f8916826147a9565b8355505b6001600288020188555050505b505050505050565b82818337600083830152505050565b60006148d083856144fa565b93506148dd8385846148b5565b6148e6836138bc565b840190509392505050565b6000602082019050818103600083015261490c8184866148c4565b90509392505050565b7f50726f706f73616c206973206e6f742061637469766500000000000000000000600082015250565b600061494b601683613881565b915061495682614915565b602082019050919050565b6000602082019050818103600083015261497a8161493e565b9050919050565b7f5472616e7366657220646f6573206e6f74206578697374000000000000000000600082015250565b60006149b7601783613881565b91506149c282614981565b602082019050919050565b600060208201905081810360008301526149e6816149aa565b9050919050565b7f5472616e7366657220616c72656164792073656e740000000000000000000000600082015250565b6000614a23601583613881565b9150614a2e826149ed565b602082019050919050565b60006020820190508181036000830152614a5281614a16565b9050919050565b7f496e76616c69642071756f72756d2076616c7565000000000000000000000000600082015250565b6000614a8f601483613881565b9150614a9a82614a59565b602082019050919050565b60006020820190508181036000830152614abe81614a82565b9050919050565b7f50726576696f75732071756f72756d20766f74696e6720776173206e6f74206560008201527f6e64656400000000000000000000000000000000000000000000000000000000602082015250565b6000614b21602483613881565b9150614b2c82614ac5565b604082019050919050565b60006020820190508181036000830152614b5081614b14565b9050919050565b7f5472616e7366657220616d6f756e74206d75737420626520677265617465722060008201527f7468616e20300000000000000000000000000000000000000000000000000000602082015250565b6000614bb3602683613881565b9150614bbe82614b57565b604082019050919050565b60006020820190508181036000830152614be281614ba6565b9050919050565b7f496e76616c696420746f6b656e20616464726573730000000000000000000000600082015250565b6000614c1f601583613881565b9150614c2a82614be9565b602082019050919050565b60006020820190508181036000830152614c4e81614c12565b9050919050565b6000606082019050614c6a60008301866139c7565b614c7760208301856139c7565b614c846040830184613d82565b949350505050565b7f4e6f7420616e20617070726f7665720000000000000000000000000000000000600082015250565b6000614cc2600f83613881565b9150614ccd82614c8c565b602082019050919050565b60006020820190508181036000830152614cf181614cb5565b9050919050565b6000614d03826139bd565b9150614d0e836139bd565b9250828203905081811115614d2657614d256141ea565b5b92915050565b7f417070726f766572732062656c6f772071756f72756d00000000000000000000600082015250565b6000614d62601683613881565b9150614d6d82614d2c565b602082019050919050565b60006020820190508181036000830152614d9181614d55565b9050919050565b7f43616e6e6f742072656d6f766520796f757273656c6600000000000000000000600082015250565b6000614dce601683613881565b9150614dd982614d98565b602082019050919050565b60006020820190508181036000830152614dfd81614dc1565b9050919050565b7f4e487b7100000000000000000000000000000000000000000000000000000000600052603160045260246000fd5b7f43616e6e6f7420617070726f7665207472616e73666572207477696365000000600082015250565b6000614e69601d83613881565b9150614e7482614e33565b602082019050919050565b60006020820190508181036000830152614e9881614e5c565b9050919050565b7f496e73756666696369656e7420636f6e74726163742062616c616e6365000000600082015250565b6000614ed5601d83613881565b9150614ee082614e9f565b602082019050919050565b60006020820190508181036000830152614f0481614ec8565b9050919050565b50565b6000614f1b6000836143d4565b9150614f2682614f0b565b600082019050919050565b6000614f3c82614f0e565b9150819050919050565b7f5472616e73666572206661696c65642e00000000000000000000000000000000600082015250565b6000614f7c601083613881565b9150614f8782614f46565b602082019050919050565b60006020820190508181036000830152614fab81614f6f565b9050919050565b600081519050614fc1816139f1565b92915050565b600060208284031215614fdd57614fdc613928565b5b6000614feb84828501614fb2565b91505092915050565b7f496e73756666696369656e7420746f6b656e2062616c616e6365000000000000600082015250565b600061502a601a83613881565b915061503582614ff4565b602082019050919050565b600060208201905081810360008301526150598161501d565b9050919050565b600060408201905061507560008301856139c7565b6150826020830184613d82565b9392505050565b600060408201905061509e6000830185613d82565b6150ab60208301846139c7565b9392505050565b6150bb81613abd565b81146150c657600080fd5b50565b6000815190506150d8816150b2565b92915050565b6000602082840312156150f4576150f3613928565b5b6000615102848285016150c9565b91505092915050565b600061511682613a68565b61512081856143d4565b9350615130818560208601613892565b80840191505092915050565b6000615148828461510b565b91508190509291505056fea2646970667358221220b072c77b23f0d190d1110f4dd123f6c5e217fcd7785deca89d1ddf629a47891264736f6c63430008180033",
  "linkReferences": {},
  "deployedLinkReferences": {}
}