{
  "_format": "hh-sol-artifact-1",
  "contractName": "MultiSigWalletFactory",
  "sourceName": "contracts/MultiSigWalletFactory.sol",
  "abi": [
    {
      "anonymous": false,
      "inputs": [
        {
          "indexed": true,
          "internalType": "address",
          "name": "walletAddress",
          "type": "address"
        },
        {
          "indexed": false,
          "internalType": "address[]",
          "name": "approvers",
          "type": "address[]"
        },
        {
          "indexed": false,
          "internalType": "uint256",
          "name": "quorum",
          "type": "uint256"
        },
        {
          "indexed": false,
          "internalType": "string",
          "name": "_name",
          "type": "string"
        }
      ],
      "name": "WalletCreated",
      "type": "event"
    },
    {
      "inputs": [
        {
          "internalType": "uint256",
          "name": "",
          "type": "uint256"
        }
      ],
      "name": "allWallets",
      "outputs": [
        {
          "internalType": "address",
          "name": "",
          "type": "address"
        }
      ],
      "stateMutability": "view",
      "type": "function"
    },
    {
      "inputs": [
        {
          "internalType": "address[]",
          "name": "approvers",
          "type": "address[]"
        },
        {
          "internalType": "uint256",
          "name": "quorum",
          "type": "uint256"
        },
        {
          "internalType": "string",
          "name": "_name",
          "type": "string"
        }
      ],
      "name": "createWallet",
      "outputs": [
        {
          "internalType": "address",
          "name": "",
          "type": "address"
        }
      ],
      "stateMutability": "nonpayable",
      "type": "function"
    },
    {
      "inputs": [
        {
          "internalType": "address",
          "name": "approver",
          "type": "address"
        }
      ],
      "name": "getWalletsForApprover",
      "outputs": [
        {
          "internalType": "address[]",
          "name": "",
          "type": "address[]"
        }
      ],
      "stateMutability": "view",
      "type": "function"
    }
  ],
  "bytecode": "0x608060405234801561001057600080fd5b5061361a806100206000396000f3fe60806040523480156200001157600080fd5b5060043610620000465760003560e01c8063581b62ab146200004b5780638cf8350f146200007f578063c646d30f1462000096575b600080fd5b620000626200005c366004620003e1565b620000bc565b6040516001600160a01b0390911681526020015b60405180910390f35b6200006262000090366004620004e3565b620002b3565b620000ad620000a7366004620004fd565b620002de565b60405162000076919062000569565b600080855111620001095760405162461bcd60e51b8152602060048201526012602482015271105c1c1c9bdd995c9cc81c995c5d5a5c995960721b60448201526064015b60405180910390fd5b6000841180156200011b575084518411155b6200015a5760405162461bcd60e51b815260206004820152600e60248201526d496e76616c69642071756f72756d60901b604482015260640162000100565b6000858585856040516200016e9062000354565b6200017d94939291906200057e565b604051809103906000f0801580156200019a573d6000803e3d6000fd5b50905060005b86518110156200021c57600080888381518110620001c257620001c2620005cd565b6020908102919091018101516001600160a01b03908116835282820193909352604090910160009081208054600180820183559183529290912090910180546001600160a01b0319169285169290921790915501620001a0565b506001805480820182556000919091527fb10e2d527612073b26eecdfd717e6a320cf44b4afac2b0732d9fcbe2b7fa0cf60180546001600160a01b0319166001600160a01b0383169081179091556040517f074e92f1e3e43319f747f035a4c06489307379ef8eff722862c9a4ccd0f59aad90620002a29089908990899089906200057e565b60405180910390a295945050505050565b60018181548110620002c457600080fd5b6000918252602090912001546001600160a01b0316905081565b6001600160a01b038116600090815260208181526040918290208054835181840281018401909452808452606093928301828280156200034857602002820191906000526020600020905b81546001600160a01b0316815260019091019060200180831162000329575b50505050509050919050565b61300180620005e483390190565b634e487b7160e01b600052604160045260246000fd5b80356001600160a01b03811681146200039057600080fd5b919050565b60008083601f840112620003a857600080fd5b50813567ffffffffffffffff811115620003c157600080fd5b602083019150836020828501011115620003da57600080fd5b9250929050565b60008060008060608587031215620003f857600080fd5b843567ffffffffffffffff808211156200041157600080fd5b818701915087601f8301126200042657600080fd5b81356020828211156200043d576200043d62000362565b8160051b604051601f19603f8301168101818110868211171562000465576200046562000362565b6040529283528481018201928281018c8511156200048257600080fd5b958301955b84871015620004a9576200049b8762000378565b815295830195830162000487565b509850508801359550506040870135915080821115620004c857600080fd5b50620004d78782880162000395565b95989497509550505050565b600060208284031215620004f657600080fd5b5035919050565b6000602082840312156200051057600080fd5b6200051b8262000378565b9392505050565b60008151808452602080850194506020840160005b838110156200055e5781516001600160a01b03168752958201959082019060010162000537565b509495945050505050565b6020815260006200051b602083018462000522565b60608152600062000593606083018762000522565b8560208401528281036040840152838152838560208301376000602085830101526020601f19601f86011682010191505095945050505050565b634e487b7160e01b600052603260045260246000fdfe6080604052600160065560016007553480156200001b57600080fd5b5060405162003001380380620030018339810160408190526200003e91620002c8565b60008351116200008a5760405162461bcd60e51b8152602060048201526012602482015271105c1c1c9bdd995c9cc81c995c5d5a5c995960721b60448201526064015b60405180910390fd5b6000821180156200009c575082518211155b620000db5760405162461bcd60e51b815260206004820152600e60248201526d496e76616c69642071756f72756d60901b604482015260640162000081565b8251620000f090600090602086019062000171565b506002829055600362000104828262000454565b5060005b8351811015620001675760018060008684815181106200012c576200012c62000520565b6020908102919091018101516001600160a01b03168252810191909152604001600020805460ff191691151591909117905560010162000108565b5050505062000536565b828054828255906000526020600020908101928215620001c9579160200282015b82811115620001c957825182546001600160a01b0319166001600160a01b0390911617825560209092019160019091019062000192565b50620001d7929150620001db565b5090565b5b80821115620001d75760008155600101620001dc565b634e487b7160e01b600052604160045260246000fd5b604051601f8201601f191681016001600160401b0381118282101715620002335762000233620001f2565b604052919050565b600082601f8301126200024d57600080fd5b81516001600160401b03811115620002695762000269620001f2565b60206200027f601f8301601f1916820162000208565b82815285828487010111156200029457600080fd5b60005b83811015620002b457858101830151828201840152820162000297565b506000928101909101919091529392505050565b600080600060608486031215620002de57600080fd5b83516001600160401b0380821115620002f657600080fd5b818601915086601f8301126200030b57600080fd5b8151602082821115620003225762000322620001f2565b8160051b6200033382820162000208565b928352848101820192828101908b8511156200034e57600080fd5b958301955b848710156200038857865192506001600160a01b0383168314620003775760008081fd5b828252958301959083019062000353565b928a015160408b0151939950975091945050505080821115620003aa57600080fd5b50620003b9868287016200023b565b9150509250925092565b600181811c90821680620003d857607f821691505b602082108103620003f957634e487b7160e01b600052602260045260246000fd5b50919050565b601f8211156200044f576000816000526020600020601f850160051c810160208610156200042a5750805b601f850160051c820191505b818110156200044b5782815560010162000436565b5050505b505050565b81516001600160401b03811115620004705762000470620001f2565b6200048881620004818454620003c3565b84620003ff565b602080601f831160018114620004c05760008415620004a75750858301515b600019600386901b1c1916600185901b1785556200044b565b600085815260208120601f198616915b82811015620004f157888601518255948401946001909101908401620004d0565b5085821015620005105787850151600019600388901b60f8161c191681555b5050505050600190811b01905550565b634e487b7160e01b600052603260045260246000fd5b612abb80620005466000396000f3fe6080604052600436106101175760003560e01c80636d218e481161009a578063b77bf60011610061578063b77bf60014610389578063c16fe9071461039e578063cacca4a014610414578063d3650fb814610434578063e3d33fc91461046c57005b80636d218e481461027e57806384acf0f5146102be5780638644aadd146103295780638fe91b8314610349578063966e52ba1461036957005b806333ea3dc8116100de57806333ea3dc8146101cf57806342dd3c06146101fc578063511fd45a1461021c57806359caecb51461023c5780636cb3e8ef1461025c57005b806306fdde03146101205780631540b03f1461014b5780631703a0181461016b578063242232d11461018f5780633380c0d8146101af57005b3661011e57005b005b34801561012c57600080fd5b50610135610481565b604051610142919061240e565b60405180910390f35b34801561015757600080fd5b5061011e610166366004612436565b61050f565b34801561017757600080fd5b5061018160025481565b604051908152602001610142565b34801561019b57600080fd5b5061011e6101aa366004612453565b610899565b3480156101bb57600080fd5b5061011e6101ca366004612453565b610b7c565b3480156101db57600080fd5b506101ef6101ea366004612453565b610c80565b604051610142919061246c565b34801561020857600080fd5b5061011e6102173660046124c6565b610dd6565b34801561022857600080fd5b5061011e61023736600461254b565b610fe8565b34801561024857600080fd5b5061011e610257366004612453565b61123c565b34801561026857600080fd5b5061027161133b565b604051610142919061256c565b34801561028a57600080fd5b506102ae610299366004612436565b60016020526000908152604090205460ff1681565b6040519015158152602001610142565b3480156102ca57600080fd5b506103046102d936600461254b565b600a602052600090815260409020805460018201546002909201546001600160a01b03909116919083565b604080516001600160a01b039094168452602084019290925290820152606001610142565b34801561033557600080fd5b5061011e610344366004612453565b61139d565b34801561035557600080fd5b5061011e6103643660046125b9565b61165f565b34801561037557600080fd5b5061011e610384366004612436565b611893565b34801561039557600080fd5b50600654610181565b3480156103aa57600080fd5b506103be6103b9366004612453565b611cdb565b604080518251815260208084015190820152828201516001600160a01b03908116928201929092526060808401519082015260808084015115159082015260a0928301519091169181019190915260c001610142565b34801561042057600080fd5b5061011e61042f366004612453565b611da5565b34801561044057600080fd5b5061045461044f366004612453565b61219f565b6040516001600160a01b039091168152602001610142565b34801561047857600080fd5b50600754610181565b6003805461048e906125fb565b80601f01602080910402602001604051908101604052809291908181526020018280546104ba906125fb565b80156105075780601f106104dc57610100808354040283529160200191610507565b820191906000526020600020905b8154815290600101906020018083116104ea57829003601f168201915b505050505081565b3360009081526001602052604090205460ff166105475760405162461bcd60e51b815260040161053e90612635565b60405180910390fd5b6001600160a01b03811661059d5760405162461bcd60e51b815260206004820152601860248201527f496e76616c696420617070726f76657220616464726573730000000000000000604482015260640161053e565b6001600160a01b03811660009081526001602052604090205460ff16156105fc5760405162461bcd60e51b815260206004820152601360248201527220b63932b0b23c9030b71030b8383937bb32b960691b604482015260640161053e565b3360009081527f13da86008ba1c6922daee3e07db95305ef49ebced9f5467a0b8613fcc6b343e660205260409020547f13da86008ba1c6922daee3e07db95305ef49ebced9f5467a0b8613fcc6b343e39060ff161561066d5760405162461bcd60e51b815260040161053e9061267a565b80546001600160a01b03166106c55780546001600160a01b0319166001600160a01b03831690811782556040517f42647c31d6f3a1e85838fff717d501a7d46492c2e6b20bf13dccb758204ffac190600090a26106f1565b80546001600160a01b038381169116146106f15760405162461bcd60e51b815260040161053e906126b1565b6002810180549060006107038361270d565b9091555050336000908152600382016020526040808220805460ff19166001179055516001600160a01b038416917f3ac5044483cae9c8ac5ca932b0f27d57fb798c8904fccd0df1eb02146b26b2aa91a26002548160020154106108955760008054600180820183557f290decd9548b62a8d60345a988386fc84ba6bc95484008f6362f93160ef3e56390910180546001600160a01b0319166001600160a01b03861690811790915580835260208290526040808420805460ff1916909317909255905190917f835bddf1ceee4956e4329af9edf018523c1191238187a597453f6020bcadb04291a260005b816002015481101561085157600082600301600080848154811061081557610815612726565b6000918252602080832091909101546001600160a01b031683528201929092526040019020805460ff19169115159190911790556001016107ef565b50600a6000805b600281111561086957610869612664565b81526020810191909152604001600090812080546001600160a01b031916815560018101829055600201555b5050565b3360009081526001602052604090205460ff166108c85760405162461bcd60e51b815260040161053e90612635565b6000811180156108d9575060065481105b6108f55760405162461bcd60e51b815260040161053e9061273c565b60008181526005602052604090206004015460ff16156109575760405162461bcd60e51b815260206004820152601c60248201527f5472616e73616374696f6e20616c726561647920657865637574656400000000604482015260640161053e565b33600090815260096020908152604080832084845290915290205460ff16156109c25760405162461bcd60e51b815260206004820181905260248201527f43616e6e6f7420617070726f7665207472616e73616374696f6e207477696365604482015260640161053e565b3360009081526009602090815260408083208484528252808320805460ff19166001179055600590915281206003018054916109fd8361270d565b9091555050604051339082907f924813d717e221b5f46dcd8a56da1679e4612584ab3237d55e5faabf6f6a307990600090a360025460008281526005602052604090206003015410610b795760008181526005602052604080822060048101805460ff1916600190811790915581015491516001600160a01b0390921691610a889160020190612773565b6000604051808303816000865af19150503d8060008114610ac5576040519150601f19603f3d011682016040523d82523d6000602084013e610aca565b606091505b5050905080610b1b5760405162461bcd60e51b815260206004820152601c60248201527f5472616e73616374696f6e20657865637574696f6e206661696c656400000000604482015260640161053e565b60008281526005602052604090819020600181015491516001600160a01b039092169184917f518df7417ea3ad72d40e6f8bd20a6344a813b8b5e5cc0638f8cbd1487107c33991610b6f91600201906127e9565b60405180910390a3505b50565b3360009081526001602052604090205460ff16610bab5760405162461bcd60e51b815260040161053e90612635565b600081118015610bbc575060065481105b610bd85760405162461bcd60e51b815260040161053e9061273c565b60008181526005602052604090206004015460ff1615610c3a5760405162461bcd60e51b815260206004820152601c60248201527f5472616e73616374696f6e20616c726561647920657865637574656400000000604482015260640161053e565b600081815260056020526040808220600401805460ff191660011790555182917f956fb32199d8b882b2039a14e1be35ab14f7a80b9089fc223f14b43937173e6091a250565b610cbd6040518060a001604052806000815260200160006001600160a01b0316815260200160608152602001600081526020016000151581525090565b600082118015610cce575060065482105b610cea5760405162461bcd60e51b815260040161053e9061273c565b600082815260056020908152604091829020825160a0810184528154815260018201546001600160a01b0316928101929092526002810180549293919291840191610d34906125fb565b80601f0160208091040260200160405190810160405280929190818152602001828054610d60906125fb565b8015610dad5780601f10610d8257610100808354040283529160200191610dad565b820191906000526020600020905b815481529060010190602001808311610d9057829003601f168201915b50505091835250506003820154602082015260049091015460ff16151560409091015292915050565b3360009081526001602052604090205460ff16610e055760405162461bcd60e51b815260040161053e90612635565b6001600160a01b038316610e575760405162461bcd60e51b8152602060048201526019602482015278496e76616c696420726563697069656e74206164647265737360381b604482015260640161053e565b6040518060a001604052806006548152602001846001600160a01b0316815260200183838080601f0160208091040260200160405190810160405280939291908181526020018383808284376000920182905250938552505060016020808501829052604094850184905260065484526005815292849020855181559285015190830180546001600160a01b0319166001600160a01b0390921691909117905550908201516002820190610f0b90826128df565b50606082015160038201556080909101516004909101805491151560ff199283161790553360009081526009602090815260408083206006805485529252918290208054909316600117909255905490516001600160a01b03851691907f6d1362c103e71c81f65f9b70be8ec9e1befd6b06cd92a7a3a38d1a4eebf971d590610f97908690869061299f565b60405180910390a36006546040513391907f924813d717e221b5f46dcd8a56da1679e4612584ab3237d55e5faabf6f6a307990600090a360068054906000610fde8361270d565b9190505550505050565b3360009081526001602052604090205460ff166110175760405162461bcd60e51b815260040161053e90612635565b6000600a8183600281111561102e5761102e612664565b600281111561103f5761103f612664565b81526020810191909152604001600020546001600160a01b031614801561109e5750600a600082600281111561107757611077612664565b600281111561108857611088612664565b8152602001908152602001600020600101546000145b156110e45760405162461bcd60e51b815260206004820152601660248201527550726f706f73616c206973206e6f742061637469766560501b604482015260640161053e565b60005b600a60008360028111156110fd576110fd612664565b600281111561110e5761110e612664565b8152602001908152602001600020600201548110156111a757600a600083600281111561113d5761113d612664565b600281111561114e5761114e612664565b8152602001908152602001600020600301600080838154811061117357611173612726565b60009182526020808320909101546001600160a01b031683528201929092526040019020805460ff191690556001016110e7565b50600a60008260028111156111be576111be612664565b60028111156111cf576111cf612664565b81526020810191909152604001600090812080546001600160a01b031916815560018101829055600290810191909155819081111561121057611210612664565b6040517f1fb4d9c77ff0707353cf17c9a3b2465f4474b34551a52be00576402b740bf5af90600090a250565b3360009081526001602052604090205460ff1661126b5760405162461bcd60e51b815260040161053e90612635565b60008111801561127c575060075481105b6112985760405162461bcd60e51b815260040161053e906129ce565b6000818152600460208190526040909120015460ff16156112f35760405162461bcd60e51b8152602060048201526015602482015274151c985b9cd9995c88185b1c9958591e481cd95b9d605a1b604482015260640161053e565b6000818152600460208190526040808320909101805460ff191660011790555182917f80325e888c1c82b732ed61a3aaa950ae32a233290f74a648d1a333966645034591a250565b6060600080548060200260200160405190810160405280929190818152602001828054801561139357602002820191906000526020600020905b81546001600160a01b03168152600190910190602001808311611375575b5050505050905090565b3360009081526001602052604090205460ff166113cc5760405162461bcd60e51b815260040161053e90612635565b6000811180156113de57506000548111155b6114215760405162461bcd60e51b8152602060048201526014602482015273496e76616c69642071756f72756d2076616c756560601b604482015260640161053e565b3360009081527fbff4442b8ed600beeb8e26b1279a0f0d14c6edfaec26d968ee13c86f7d4c2bab60205260409020547fbff4442b8ed600beeb8e26b1279a0f0d14c6edfaec26d968ee13c86f7d4c2ba89060ff16156114925760405162461bcd60e51b815260040161053e9061267a565b80600101546000036114dd57600181018290556040518281527f9e7e02907524a5c2dd49e4f2db2c09d874263822ebbb773b425b0db752aeb0ed9060200160405180910390a161153c565b8181600101541461153c5760405162461bcd60e51b8152602060048201526024808201527f50726576696f75732071756f72756d20766f74696e6720776173206e6f7420656044820152631b99195960e21b606482015260840161053e565b60028101805490600061154e8361270d565b909155505033600090815260038201602052604090819020805460ff19166001179055517f80d779629502e3b7ac3bfc4d6c5cd5baeaa4fd5fd84049dcacc592206e5375db906115a19084815260200190565b60405180910390a16002548160020154106108955760028290556040518281527f027863d12a407097e086a48e36475bfc859d0b200b7e6f65b5fd3b218e46632e9060200160405180910390a160005b816002015481101561165357600082600301600080848154811061161757611617612726565b6000918252602080832091909101546001600160a01b031683528201929092526040019020805460ff19169115159190911790556001016115f1565b50600a60006002610858565b3360009081526001602052604090205460ff1661168e5760405162461bcd60e51b815260040161053e90612635565b600083116116ed5760405162461bcd60e51b815260206004820152602660248201527f5472616e7366657220616d6f756e74206d75737420626520677265617465722060448201526507468616e20360d41b606482015260840161053e565b6001600160a01b03821661173f5760405162461bcd60e51b8152602060048201526019602482015278496e76616c696420726563697069656e74206164647265737360381b604482015260640161053e565b6001600160a01b03811661178d5760405162461bcd60e51b8152602060048201526015602482015274496e76616c696420746f6b656e206164647265737360581b604482015260640161053e565b6040805160c0810182526007805480835260208084018881526001600160a01b0388811686880181815260006060808a0182815260808b018381528d871660a08d018181529a85526004808b52948e90209c518d55975160018d0155935160028c0180546001600160a01b0319169188169190911790555160038b015591519801805496516001600160a81b0319909716981515610100600160a81b03191698909817610100969093169590950291909117909555925485519081529081018890529384019190915290917fb7123625d8f7e8a37776893e56b7a4b59d0858149edeb7424421360b57d04642910160405180910390a260078054906000610fde8361270d565b3360009081526001602052604090205460ff166118c25760405162461bcd60e51b815260040161053e90612635565b6001600160a01b03811660009081526001602052604090205460ff1661191c5760405162461bcd60e51b815260206004820152600f60248201526e2737ba1030b71030b8383937bb32b960891b604482015260640161053e565b60025460005461192e90600190612a05565b10156119755760405162461bcd60e51b8152602060048201526016602482015275417070726f766572732062656c6f772071756f72756d60501b604482015260640161053e565b336001600160a01b038216036119c65760405162461bcd60e51b815260206004820152601660248201527521b0b73737ba103932b6b7bb32903cb7bab939b2b63360511b604482015260640161053e565b3360009081527fbbc70db1b6c7afd11e79c0fb0051300458f1a3acb8ee9789d9b6b26c61ad9bca60205260409020547fbbc70db1b6c7afd11e79c0fb0051300458f1a3acb8ee9789d9b6b26c61ad9bc79060ff1615611a375760405162461bcd60e51b815260040161053e9061267a565b80546001600160a01b0316611a8f5780546001600160a01b0319166001600160a01b03831690811782556040517f4b8b515a0ad45cf491425fe32847314d9854027c1e77d028798d57c77a45dc9890600090a2611abb565b80546001600160a01b03838116911614611abb5760405162461bcd60e51b815260040161053e906126b1565b600281018054906000611acd8361270d565b9091555050336000908152600382016020526040808220805460ff19166001179055516001600160a01b038416917f55cfd44c39fdccd1437ec885383179b57ca168f75ac2d7623078e12457b0445a91a26002548160020154106108955760005b600054811015611c6957826001600160a01b031660008281548110611b5557611b55612726565b6000918252602090912001546001600160a01b031603611c615760008054611b7f90600190612a05565b81548110611b8f57611b8f612726565b600091825260208220015481546001600160a01b03909116919083908110611bb957611bb9612726565b6000918252602082200180546001600160a01b0319166001600160a01b039390931692909217909155805480611bf157611bf1612a18565b60008281526020808220830160001990810180546001600160a01b03191690559092019092556001600160a01b03851680835260019091526040808320805460ff191690555190917fc6e35658c76ecdde40a54f31a91fb7c8615e9893cc0885584b27bb3433270d4691a2611c69565b600101611b2e565b5060005b8160020154811015611ccf576000826003016000808481548110611c9357611c93612726565b6000918252602080832091909101546001600160a01b031683528201929092526040019020805460ff1916911515919091179055600101611c6d565b50600a60006001610858565b6040805160c081018252600080825260208201819052918101829052606081018290526080810182905260a0810191909152600082118015611d1e575060075482105b611d3a5760405162461bcd60e51b815260040161053e906129ce565b50600090815260046020818152604092839020835160c0810185528154815260018201549281019290925260028101546001600160a01b0390811694830194909452600381015460608301529091015460ff811615156080830152610100900490911660a082015290565b3360009081526001602052604090205460ff16611dd45760405162461bcd60e51b815260040161053e90612635565b600081118015611de5575060075481105b611e015760405162461bcd60e51b815260040161053e906129ce565b6000818152600460208190526040909120015460ff1615611e5c5760405162461bcd60e51b8152602060048201526015602482015274151c985b9cd9995c88185b1c9958591e481cd95b9d605a1b604482015260640161053e565b33600090815260086020908152604080832084845290915290205460ff1615611ec75760405162461bcd60e51b815260206004820152601d60248201527f43616e6e6f7420617070726f7665207472616e73666572207477696365000000604482015260640161053e565b3360009081526008602090815260408083208484528252808320805460ff1916600117905560049091528120600301805491611f028361270d565b9091555050604051339082907fa4269914b1afdc8f7e4c3aa6794f0de6e37f00884fb97ea9288a1d68ba7de67b90600090a360025460008281526004602052604090206003015410610b79576000818152600460208190526040909120908101805460ff191660019081179182905560028301549201546001600160a01b0392831692909161010090041660001981016120825781471015611fe65760405162461bcd60e51b815260206004820152601d60248201527f496e73756666696369656e7420636f6e74726163742062616c616e6365000000604482015260640161053e565b6000836001600160a01b03168360405160006040518083038185875af1925050503d8060008114612033576040519150601f19603f3d011682016040523d82523d6000602084013e612038565b606091505b505090508061207c5760405162461bcd60e51b815260206004820152601060248201526f2a3930b739b332b9103330b4b632b21760811b604482015260640161053e565b50612152565b6040516370a0823160e01b8152306004820152819083906001600160a01b038316906370a0823190602401602060405180830381865afa1580156120ca573d6000803e3d6000fd5b505050506040513d601f19601f820116820180604052508101906120ee9190612a2e565b101561213c5760405162461bcd60e51b815260206004820152601a60248201527f496e73756666696369656e7420746f6b656e2062616c616e6365000000000000604482015260640161053e565b6121506001600160a01b03821685856121c9565b505b604080518381526001600160a01b03838116602083015285169186917f74a07143a801f8398ed57d254a17757f19c77f62431c3918e5061160b1434486910160405180910390a350505050565b600081815481106121af57600080fd5b6000918252602090912001546001600160a01b0316905081565b604080516001600160a01b038416602482015260448082018490528251808303909101815260649091019091526020810180516001600160e01b031663a9059cbb60e01b17905261221b908490612220565b505050565b60006122356001600160a01b03841683612283565b9050805160001415801561225a5750808060200190518101906122589190612a47565b155b1561221b57604051635274afe760e01b81526001600160a01b038416600482015260240161053e565b60606122918383600061229a565b90505b92915050565b6060814710156122bf5760405163cd78605960e01b815230600482015260240161053e565b600080856001600160a01b031684866040516122db9190612a69565b60006040518083038185875af1925050503d8060008114612318576040519150601f19603f3d011682016040523d82523d6000602084013e61231d565b606091505b509150915061232d868383612339565b925050505b9392505050565b60608261234e5761234982612395565b612332565b815115801561236557506001600160a01b0384163b155b1561238e57604051639996b31560e01b81526001600160a01b038516600482015260240161053e565b5080612332565b8051156123a55780518082602001fd5b604051630a12f52160e11b815260040160405180910390fd5b60005b838110156123d95781810151838201526020016123c1565b50506000910152565b600081518084526123fa8160208601602086016123be565b601f01601f19169290920160200192915050565b60208152600061229160208301846123e2565b6001600160a01b0381168114610b7957600080fd5b60006020828403121561244857600080fd5b813561233281612421565b60006020828403121561246557600080fd5b5035919050565b602081528151602082015260018060a01b0360208301511660408201526000604083015160a060608401526124a460c08401826123e2565b9050606084015160808401526080840151151560a08401528091505092915050565b6000806000604084860312156124db57600080fd5b83356124e681612421565b9250602084013567ffffffffffffffff8082111561250357600080fd5b818601915086601f83011261251757600080fd5b81358181111561252657600080fd5b87602082850101111561253857600080fd5b6020830194508093505050509250925092565b60006020828403121561255d57600080fd5b81356003811061233257600080fd5b6020808252825182820181905260009190848201906040850190845b818110156125ad5783516001600160a01b031683529284019291840191600101612588565b50909695505050505050565b6000806000606084860312156125ce57600080fd5b8335925060208401356125e081612421565b915060408401356125f081612421565b809150509250925092565b600181811c9082168061260f57607f821691505b60208210810361262f57634e487b7160e01b600052602260045260246000fd5b50919050565b60208082526015908201527413db9b1e48185c1c1c9bdd995c88185b1b1bddd959605a1b604082015260600190565b634e487b7160e01b600052602160045260246000fd5b6020808252601d908201527f43616e6e6f7420617070726f76652070726f706f73616c207477696365000000604082015260600190565b60208082526026908201527f50726576696f757320617070726f76657220766f74696e6720776173206e6f7460408201526508195b99195960d21b606082015260800190565b634e487b7160e01b600052601160045260246000fd5b60006001820161271f5761271f6126f7565b5060010190565b634e487b7160e01b600052603260045260246000fd5b6020808252601a908201527f5472616e73616374696f6e20646f6573206e6f74206578697374000000000000604082015260600190565b6000808354612781816125fb565b6001828116801561279957600181146127ae576127dd565b60ff19841687528215158302870194506127dd565b8760005260208060002060005b858110156127d45781548a8201529084019082016127bb565b50505082870194505b50929695505050505050565b60006020808352600084546127fd816125fb565b806020870152604060018084166000811461281f576001811461283b5761286b565b60ff19851660408a0152604084151560051b8a0101955061286b565b89600052602060002060005b858110156128625781548b8201860152908301908801612847565b8a016040019650505b509398975050505050505050565b634e487b7160e01b600052604160045260246000fd5b601f82111561221b576000816000526020600020601f850160051c810160208610156128b85750805b601f850160051c820191505b818110156128d7578281556001016128c4565b505050505050565b815167ffffffffffffffff8111156128f9576128f9612879565b61290d8161290784546125fb565b8461288f565b602080601f831160018114612942576000841561292a5750858301515b600019600386901b1c1916600185901b1785556128d7565b600085815260208120601f198616915b8281101561297157888601518255948401946001909101908401612952565b508582101561298f5787850151600019600388901b60f8161c191681555b5050505050600190811b01905550565b60208152816020820152818360408301376000818301604090810191909152601f909201601f19160101919050565b60208082526017908201527f5472616e7366657220646f6573206e6f74206578697374000000000000000000604082015260600190565b81810381811115612294576122946126f7565b634e487b7160e01b600052603160045260246000fd5b600060208284031215612a4057600080fd5b5051919050565b600060208284031215612a5957600080fd5b8151801515811461233257600080fd5b60008251612a7b8184602087016123be565b919091019291505056fea26469706673582212205749f16e0c778ec5c83d15a7bf6bf9445dcbc733fc13569de23fb978b4d5d22b64736f6c63430008180033a2646970667358221220f4ef3a98141f0b8435a7c2f4c326e069878f277f2ab2c9f27f6b965e665b9efc64736f6c63430008180033",
  "linkReferences": {},
  "deployedLinkReferences": {}
}