{
  "_format": "hh-sol-artifact-1",
  "contractName": "MultisigWalletFactoryV2",
  "sourceName": "contracts/v2/MultisigWalletFactoryV2.sol",
  "abi": [
    {
      "inputs": [],
      "name": "ApproversRequired",
      "type": "error"
    },
    {
      "inputs": [
        {
          "internalType": "uint256",
          "name": "value",
          "type": "uint256"
        },
        {
          "internalType": "uint256",
          "name": "approvalLength",
          "type": "uint256"
        }
      ],
      "name": "InvalidQuorum",
      "type": "error"
    },
    {
      "anonymous": false,
      "inputs": [
        {
          "indexed": true,
          "internalType": "address",
          "name": "walletAddress",
          "type": "address"
        },
        {
          "indexed": false,
          "internalType": "address[]",
          "name": "approvers",
          "type": "address[]"
        },
        {
          "indexed": false,
          "internalType": "uint256",
          "name": "quorum",
          "type": "uint256"
        },
        {
          "indexed": false,
          "internalType": "string",
          "name": "_name",
          "type": "string"
        }
      ],
      "name": "WalletCreated",
      "type": "event"
    },
    {
      "inputs": [
        {
          "internalType": "uint256",
          "name": "",
          "type": "uint256"
        }
      ],
      "name": "allWallets",
      "outputs": [
        {
          "internalType": "address",
          "name": "",
          "type": "address"
        }
      ],
      "stateMutability": "view",
      "type": "function"
    },
    {
      "inputs": [
        {
          "internalType": "address[]",
          "name": "approvers",
          "type": "address[]"
        },
        {
          "internalType": "uint256",
          "name": "quorum",
          "type": "uint256"
        },
        {
          "internalType": "string",
          "name": "_name",
          "type": "string"
        }
      ],
      "name": "createWallet",
      "outputs": [
        {
          "internalType": "address",
          "name": "",
          "type": "address"
        }
      ],
      "stateMutability": "nonpayable",
      "type": "function"
    },
    {
      "inputs": [
        {
          "internalType": "address",
          "name": "approver",
          "type": "address"
        }
      ],
      "name": "getWalletsForApprover",
      "outputs": [
        {
          "internalType": "address[]",
          "name": "",
          "type": "address[]"
        }
      ],
      "stateMutability": "view",
      "type": "function"
    }
  ],
  "bytecode": "0x608060405234801561001057600080fd5b506137f3806100206000396000f3fe60806040523480156200001157600080fd5b5060043610620000465760003560e01c8063581b62ab146200004b5780638cf8350f146200007f578063c646d30f1462000096575b600080fd5b620000626200005c366004620003ac565b620000bc565b6040516001600160a01b0390911681526020015b60405180910390f35b6200006262000090366004620004ae565b6200027e565b620000ad620000a7366004620004c8565b620002a9565b60405162000076919062000534565b600080855111620000e057604051630853f2a560e01b815260040160405180910390fd5b83158015620000ef5750845184115b156200012557845160405163158589c560e11b81526200011c918691600401918252602082015260400190565b60405180910390fd5b60008585858560405162000139906200031f565b62000148949392919062000549565b604051809103906000f08015801562000165573d6000803e3d6000fd5b50905060005b8651811015620001e7576000808883815181106200018d576200018d62000598565b6020908102919091018101516001600160a01b03908116835282820193909352604090910160009081208054600180820183559183529290912090910180546001600160a01b03191692851692909217909155016200016b565b506001805480820182556000919091527fb10e2d527612073b26eecdfd717e6a320cf44b4afac2b0732d9fcbe2b7fa0cf60180546001600160a01b0319166001600160a01b0383169081179091556040517f074e92f1e3e43319f747f035a4c06489307379ef8eff722862c9a4ccd0f59aad906200026d90899089908990899062000549565b60405180910390a295945050505050565b600181815481106200028f57600080fd5b6000918252602090912001546001600160a01b0316905081565b6001600160a01b038116600090815260208181526040918290208054835181840281018401909452808452606093928301828280156200031357602002820191906000526020600020905b81546001600160a01b03168152600190910190602001808311620002f4575b50505050509050919050565b61320f80620005af83390190565b634e487b7160e01b600052604160045260246000fd5b80356001600160a01b03811681146200035b57600080fd5b919050565b60008083601f8401126200037357600080fd5b50813567ffffffffffffffff8111156200038c57600080fd5b602083019150836020828501011115620003a557600080fd5b9250929050565b60008060008060608587031215620003c357600080fd5b843567ffffffffffffffff80821115620003dc57600080fd5b818701915087601f830112620003f157600080fd5b81356020828211156200040857620004086200032d565b8160051b604051601f19603f830116810181811086821117156200043057620004306200032d565b6040529283528481018201928281018c8511156200044d57600080fd5b958301955b848710156200047457620004668762000343565b815295830195830162000452565b5098505088013595505060408701359150808211156200049357600080fd5b50620004a28782880162000360565b95989497509550505050565b600060208284031215620004c157600080fd5b5035919050565b600060208284031215620004db57600080fd5b620004e68262000343565b9392505050565b60008151808452602080850194506020840160005b83811015620005295781516001600160a01b03168752958201959082019060010162000502565b509495945050505050565b602081526000620004e66020830184620004ed565b6060815260006200055e6060830187620004ed565b8560208401528281036040840152838152838560208301376000602085830101526020601f19601f86011682010191505095945050505050565b634e487b7160e01b600052603260045260246000fdfe6080604052600160065560016007553480156200001b57600080fd5b506040516200320f3803806200320f8339810160408190526200003e91620002c8565b60008351116200008a5760405162461bcd60e51b8152602060048201526012602482015271105c1c1c9bdd995c9cc81c995c5d5a5c995960721b60448201526064015b60405180910390fd5b6000821180156200009c575082518211155b620000db5760405162461bcd60e51b815260206004820152600e60248201526d496e76616c69642071756f72756d60901b604482015260640162000081565b8251620000f090600090602086019062000171565b506002829055600362000104828262000454565b5060005b8351811015620001675760018060008684815181106200012c576200012c62000520565b6020908102919091018101516001600160a01b03168252810191909152604001600020805460ff191691151591909117905560010162000108565b5050505062000536565b828054828255906000526020600020908101928215620001c9579160200282015b82811115620001c957825182546001600160a01b0319166001600160a01b0390911617825560209092019160019091019062000192565b50620001d7929150620001db565b5090565b5b80821115620001d75760008155600101620001dc565b634e487b7160e01b600052604160045260246000fd5b604051601f8201601f191681016001600160401b0381118282101715620002335762000233620001f2565b604052919050565b600082601f8301126200024d57600080fd5b81516001600160401b03811115620002695762000269620001f2565b60206200027f601f8301601f1916820162000208565b82815285828487010111156200029457600080fd5b60005b83811015620002b457858101830151828201840152820162000297565b506000928101909101919091529392505050565b600080600060608486031215620002de57600080fd5b83516001600160401b0380821115620002f657600080fd5b818601915086601f8301126200030b57600080fd5b8151602082821115620003225762000322620001f2565b8160051b6200033382820162000208565b928352848101820192828101908b8511156200034e57600080fd5b958301955b848710156200038857865192506001600160a01b0383168314620003775760008081fd5b828252958301959083019062000353565b928a015160408b0151939950975091945050505080821115620003aa57600080fd5b50620003b9868287016200023b565b9150509250925092565b600181811c90821680620003d857607f821691505b602082108103620003f957634e487b7160e01b600052602260045260246000fd5b50919050565b601f8211156200044f576000816000526020600020601f850160051c810160208610156200042a5750805b601f850160051c820191505b818110156200044b5782815560010162000436565b5050505b505050565b81516001600160401b03811115620004705762000470620001f2565b6200048881620004818454620003c3565b84620003ff565b602080601f831160018114620004c05760008415620004a75750858301515b600019600386901b1c1916600185901b1785556200044b565b600085815260208120601f198616915b82811015620004f157888601518255948401946001909101908401620004d0565b5085821015620005105787850151600019600388901b60f8161c191681555b5050505050600190811b01905550565b634e487b7160e01b600052603260045260246000fd5b612cc980620005466000396000f3fe6080604052600436106101175760003560e01c806384acf0f51161009a578063c16fe90711610061578063c16fe9071461037e578063c945239014610406578063cacca4a014610419578063d3650fb814610439578063e3d33fc91461047157005b806384acf0f51461029e5780638644aadd146103095780638fe91b8314610329578063966e52ba14610349578063b77bf6001461036957005b806333ea3dc8116100de57806333ea3dc8146101cf578063511fd45a146101fc57806359caecb51461021c5780636cb3e8ef1461023c5780636d218e481461025e57005b806306fdde03146101205780631540b03f1461014b5780631703a0181461016b578063242232d11461018f5780633380c0d8146101af57005b3661011e57005b005b34801561012c57600080fd5b50610135610486565b6040516101429190612630565b60405180910390f35b34801561015757600080fd5b5061011e61016636600461265f565b610514565b34801561017757600080fd5b5061018160025481565b604051908152602001610142565b34801561019b57600080fd5b5061011e6101aa36600461267c565b61089e565b3480156101bb57600080fd5b5061011e6101ca36600461267c565b610d07565b3480156101db57600080fd5b506101ef6101ea36600461267c565b610e6d565b6040516101429190612695565b34801561020857600080fd5b5061011e610217366004612706565b610fee565b34801561022857600080fd5b5061011e61023736600461267c565b611242565b34801561024857600080fd5b506102516113ad565b6040516101429190612727565b34801561026a57600080fd5b5061028e61027936600461265f565b60016020526000908152604090205460ff1681565b6040519015158152602001610142565b3480156102aa57600080fd5b506102e46102b9366004612706565b600a602052600090815260409020805460018201546002909201546001600160a01b03909116919083565b604080516001600160a01b039094168452602084019290925290820152606001610142565b34801561031557600080fd5b5061011e61032436600461267c565b61140f565b34801561033557600080fd5b5061011e610344366004612774565b6116d1565b34801561035557600080fd5b5061011e61036436600461265f565b61192e565b34801561037557600080fd5b50600654610181565b34801561038a57600080fd5b5061039e61039936600461267c565b611d76565b6040516101429190600060e0820190508251825260208301516020830152604083015160018060a01b038082166040850152606085015160608501526080850151151560808501528060a08601511660a0850152505060c0830151151560c083015292915050565b61011e6104143660046127b6565b611e59565b34801561042557600080fd5b5061011e61043436600461267c565b61209b565b34801561044557600080fd5b5061045961045436600461267c565b6124fc565b6040516001600160a01b039091168152602001610142565b34801561047d57600080fd5b50600754610181565b6003805461049390612841565b80601f01602080910402602001604051908101604052809291908181526020018280546104bf90612841565b801561050c5780601f106104e15761010080835404028352916020019161050c565b820191906000526020600020905b8154815290600101906020018083116104ef57829003601f168201915b505050505081565b3360009081526001602052604090205460ff1661054c5760405162461bcd60e51b81526004016105439061287b565b60405180910390fd5b6001600160a01b0381166105a25760405162461bcd60e51b815260206004820152601860248201527f496e76616c696420617070726f766572206164647265737300000000000000006044820152606401610543565b6001600160a01b03811660009081526001602052604090205460ff16156106015760405162461bcd60e51b815260206004820152601360248201527220b63932b0b23c9030b71030b8383937bb32b960691b6044820152606401610543565b3360009081527f13da86008ba1c6922daee3e07db95305ef49ebced9f5467a0b8613fcc6b343e660205260409020547f13da86008ba1c6922daee3e07db95305ef49ebced9f5467a0b8613fcc6b343e39060ff16156106725760405162461bcd60e51b8152600401610543906128c0565b80546001600160a01b03166106ca5780546001600160a01b0319166001600160a01b03831690811782556040517f42647c31d6f3a1e85838fff717d501a7d46492c2e6b20bf13dccb758204ffac190600090a26106f6565b80546001600160a01b038381169116146106f65760405162461bcd60e51b8152600401610543906128f7565b60028101805490600061070883612953565b9091555050336000908152600382016020526040808220805460ff19166001179055516001600160a01b038416917f3ac5044483cae9c8ac5ca932b0f27d57fb798c8904fccd0df1eb02146b26b2aa91a260025481600201541061089a5760008054600180820183557f290decd9548b62a8d60345a988386fc84ba6bc95484008f6362f93160ef3e56390910180546001600160a01b0319166001600160a01b03861690811790915580835260208290526040808420805460ff1916909317909255905190917f835bddf1ceee4956e4329af9edf018523c1191238187a597453f6020bcadb04291a260005b816002015481101561085657600082600301600080848154811061081a5761081a61296c565b6000918252602080832091909101546001600160a01b031683528201929092526040019020805460ff19169115159190911790556001016107f4565b50600a6000805b600281111561086e5761086e6128aa565b81526020810191909152604001600090812080546001600160a01b031916815560018101829055600201555b5050565b3360009081526001602052604090205460ff166108cd5760405162461bcd60e51b81526004016105439061287b565b6000811180156108de575060065481105b6108fa5760405162461bcd60e51b815260040161054390612982565b60008181526005602052604090206004015460ff161561095c5760405162461bcd60e51b815260206004820152601c60248201527f5472616e73616374696f6e20616c7265616479206578656375746564000000006044820152606401610543565b60008181526005602052604090206006015460ff16156109be5760405162461bcd60e51b815260206004820152601c60248201527f5472616e73616374696f6e20616c72656164792063616e63656c6564000000006044820152606401610543565b33600090815260096020908152604080832084845290915290205460ff1615610a295760405162461bcd60e51b815260206004820181905260248201527f43616e6e6f7420617070726f7665207472616e73616374696f6e2074776963656044820152606401610543565b60008181526005602081905260409091209081015415801590610a4f5750478160050154115b15610a6d57604051631e9acf1760e31b815260040160405180910390fd5b3360009081526009602090815260408083208584528252808320805460ff1916600117905560059091528120600301805491610aa883612953565b9091555050604051339083907f924813d717e221b5f46dcd8a56da1679e4612584ab3237d55e5faabf6f6a307990600090a36002546000838152600560205260409020600301541061089a5760008281526005602052604080822060048101805460ff1916600190811790915581015491516001600160a01b0390921691610b3391600201906129b9565b6000604051808303816000865af19150503d8060008114610b70576040519150601f19603f3d011682016040523d82523d6000602084013e610b75565b606091505b5050905080610bc65760405162461bcd60e51b815260206004820152601c60248201527f5472616e73616374696f6e20657865637574696f6e206661696c6564000000006044820152606401610543565b60008381526005602052604090819020600181015491516001600160a01b039092169185917f518df7417ea3ad72d40e6f8bd20a6344a813b8b5e5cc0638f8cbd1487107c33991610c1a9160020190612a2f565b60405180910390a3600582015415610d0257600182015460058301546040516000926001600160a01b031691908381818185875af1925050503d8060008114610c7f576040519150601f19603f3d011682016040523d82523d6000602084013e610c84565b606091505b5050905080610cc157600183015460058401546040516320749cc560e11b81526001600160a01b0390921660048301526024820152604401610543565b600583015460018401546040516001600160a01b03909116907f339631ea1e7c73ee5149272671b00ac69dcbfcc7b0b289816055127b710cca8390600090a3505b505050565b3360009081526001602052604090205460ff16610d365760405162461bcd60e51b81526004016105439061287b565b600081118015610d47575060065481105b610d635760405162461bcd60e51b815260040161054390612982565b60008181526005602052604090206004015460ff1615610dc55760405162461bcd60e51b815260206004820152601c60248201527f5472616e73616374696f6e20616c7265616479206578656375746564000000006044820152606401610543565b60008181526005602052604090206006015460ff1615610e275760405162461bcd60e51b815260206004820152601c60248201527f5472616e73616374696f6e20616c72656164792063616e63656c6564000000006044820152606401610543565b600081815260056020526040808220600601805460ff191660011790555182917f956fb32199d8b882b2039a14e1be35ab14f7a80b9089fc223f14b43937173e6091a250565b610eba6040518060e001604052806000815260200160006001600160a01b031681526020016060815260200160008152602001600015158152602001600081526020016000151581525090565b600082118015610ecb575060065482105b610ee75760405162461bcd60e51b815260040161054390612982565b600082815260056020908152604091829020825160e0810184528154815260018201546001600160a01b0316928101929092526002810180549293919291840191610f3190612841565b80601f0160208091040260200160405190810160405280929190818152602001828054610f5d90612841565b8015610faa5780601f10610f7f57610100808354040283529160200191610faa565b820191906000526020600020905b815481529060010190602001808311610f8d57829003601f168201915b505050918352505060038201546020820152600482015460ff9081161515604083015260058301546060830152600690920154909116151560809091015292915050565b3360009081526001602052604090205460ff1661101d5760405162461bcd60e51b81526004016105439061287b565b6000600a81836002811115611034576110346128aa565b6002811115611045576110456128aa565b81526020810191909152604001600020546001600160a01b03161480156110a45750600a600082600281111561107d5761107d6128aa565b600281111561108e5761108e6128aa565b8152602001908152602001600020600101546000145b156110ea5760405162461bcd60e51b815260206004820152601660248201527550726f706f73616c206973206e6f742061637469766560501b6044820152606401610543565b60005b600a6000836002811115611103576111036128aa565b6002811115611114576111146128aa565b8152602001908152602001600020600201548110156111ad57600a6000836002811115611143576111436128aa565b6002811115611154576111546128aa565b815260200190815260200160002060030160008083815481106111795761117961296c565b60009182526020808320909101546001600160a01b031683528201929092526040019020805460ff191690556001016110ed565b50600a60008260028111156111c4576111c46128aa565b60028111156111d5576111d56128aa565b81526020810191909152604001600090812080546001600160a01b0319168155600181018290556002908101919091558190811115611216576112166128aa565b6040517f1fb4d9c77ff0707353cf17c9a3b2465f4474b34551a52be00576402b740bf5af90600090a250565b3360009081526001602052604090205460ff166112715760405162461bcd60e51b81526004016105439061287b565b600081118015611282575060075481105b61129e5760405162461bcd60e51b815260040161054390612abf565b6000818152600460208190526040909120015460ff16156112f95760405162461bcd60e51b8152602060048201526015602482015274151c985b9cd9995c88185b1c9958591e481cd95b9d605a1b6044820152606401610543565b60008181526004602081905260409091200154600160a81b900460ff161561135f5760405162461bcd60e51b8152602060048201526019602482015278151c985b9cd9995c88185b1c9958591e4818d85b98d95b1959603a1b6044820152606401610543565b6000818152600460208190526040808320909101805460ff60a81b1916600160a81b1790555182917f80325e888c1c82b732ed61a3aaa950ae32a233290f74a648d1a333966645034591a250565b6060600080548060200260200160405190810160405280929190818152602001828054801561140557602002820191906000526020600020905b81546001600160a01b031681526001909101906020018083116113e7575b5050505050905090565b3360009081526001602052604090205460ff1661143e5760405162461bcd60e51b81526004016105439061287b565b60008111801561145057506000548111155b6114935760405162461bcd60e51b8152602060048201526014602482015273496e76616c69642071756f72756d2076616c756560601b6044820152606401610543565b3360009081527fbff4442b8ed600beeb8e26b1279a0f0d14c6edfaec26d968ee13c86f7d4c2bab60205260409020547fbff4442b8ed600beeb8e26b1279a0f0d14c6edfaec26d968ee13c86f7d4c2ba89060ff16156115045760405162461bcd60e51b8152600401610543906128c0565b806001015460000361154f57600181018290556040518281527f9e7e02907524a5c2dd49e4f2db2c09d874263822ebbb773b425b0db752aeb0ed9060200160405180910390a16115ae565b818160010154146115ae5760405162461bcd60e51b8152602060048201526024808201527f50726576696f75732071756f72756d20766f74696e6720776173206e6f7420656044820152631b99195960e21b6064820152608401610543565b6002810180549060006115c083612953565b909155505033600090815260038201602052604090819020805460ff19166001179055517f80d779629502e3b7ac3bfc4d6c5cd5baeaa4fd5fd84049dcacc592206e5375db906116139084815260200190565b60405180910390a160025481600201541061089a5760028290556040518281527f027863d12a407097e086a48e36475bfc859d0b200b7e6f65b5fd3b218e46632e9060200160405180910390a160005b81600201548110156116c55760008260030160008084815481106116895761168961296c565b6000918252602080832091909101546001600160a01b031683528201929092526040019020805460ff1916911515919091179055600101611663565b50600a6000600261085d565b3360009081526001602052604090205460ff166117005760405162461bcd60e51b81526004016105439061287b565b6000831161175f5760405162461bcd60e51b815260206004820152602660248201527f5472616e7366657220616d6f756e74206d75737420626520677265617465722060448201526507468616e20360d41b6064820152608401610543565b6001600160a01b0382166117b15760405162461bcd60e51b8152602060048201526019602482015278496e76616c696420726563697069656e74206164647265737360381b6044820152606401610543565b6001600160a01b0381166117ff5760405162461bcd60e51b8152602060048201526015602482015274496e76616c696420746f6b656e206164647265737360581b6044820152606401610543565b6040805160e0810182526007805480835260208084018881526001600160a01b0388811686880181815260006060808a0182815260808b018381528d871660a08d0181815260c08e018681529b86526004808c52958f90209d518e55985160018e0155945160028d0180549189166001600160a01b0319909216919091179055905160038c015551999091018054955197511515600160a81b0260ff60a81b199890951661010002610100600160a81b03199a15159a909a166001600160a81b0319909616959095179890981795909516919091179091559254855190815290810188905293840152917fb7123625d8f7e8a37776893e56b7a4b59d0858149edeb7424421360b57d04642910160405180910390a26007805490600061192483612953565b9190505550505050565b3360009081526001602052604090205460ff1661195d5760405162461bcd60e51b81526004016105439061287b565b6001600160a01b03811660009081526001602052604090205460ff166119b75760405162461bcd60e51b815260206004820152600f60248201526e2737ba1030b71030b8383937bb32b960891b6044820152606401610543565b6002546000546119c990600190612af6565b1015611a105760405162461bcd60e51b8152602060048201526016602482015275417070726f766572732062656c6f772071756f72756d60501b6044820152606401610543565b336001600160a01b03821603611a615760405162461bcd60e51b815260206004820152601660248201527521b0b73737ba103932b6b7bb32903cb7bab939b2b63360511b6044820152606401610543565b3360009081527fbbc70db1b6c7afd11e79c0fb0051300458f1a3acb8ee9789d9b6b26c61ad9bca60205260409020547fbbc70db1b6c7afd11e79c0fb0051300458f1a3acb8ee9789d9b6b26c61ad9bc79060ff1615611ad25760405162461bcd60e51b8152600401610543906128c0565b80546001600160a01b0316611b2a5780546001600160a01b0319166001600160a01b03831690811782556040517f4b8b515a0ad45cf491425fe32847314d9854027c1e77d028798d57c77a45dc9890600090a2611b56565b80546001600160a01b03838116911614611b565760405162461bcd60e51b8152600401610543906128f7565b600281018054906000611b6883612953565b9091555050336000908152600382016020526040808220805460ff19166001179055516001600160a01b038416917f55cfd44c39fdccd1437ec885383179b57ca168f75ac2d7623078e12457b0445a91a260025481600201541061089a5760005b600054811015611d0457826001600160a01b031660008281548110611bf057611bf061296c565b6000918252602090912001546001600160a01b031603611cfc5760008054611c1a90600190612af6565b81548110611c2a57611c2a61296c565b600091825260208220015481546001600160a01b03909116919083908110611c5457611c5461296c565b6000918252602082200180546001600160a01b0319166001600160a01b039390931692909217909155805480611c8c57611c8c612b0f565b60008281526020808220830160001990810180546001600160a01b03191690559092019092556001600160a01b03851680835260019091526040808320805460ff191690555190917fc6e35658c76ecdde40a54f31a91fb7c8615e9893cc0885584b27bb3433270d4691a2611d04565b600101611bc9565b5060005b8160020154811015611d6a576000826003016000808481548110611d2e57611d2e61296c565b6000918252602080832091909101546001600160a01b031683528201929092526040019020805460ff1916911515919091179055600101611d08565b50600a6000600161085d565b6040805160e081018252600080825260208201819052918101829052606081018290526080810182905260a0810182905260c0810191909152600082118015611dc0575060075482105b611ddc5760405162461bcd60e51b815260040161054390612abf565b50600090815260046020818152604092839020835160e0810185528154815260018201549281019290925260028101546001600160a01b0390811694830194909452600381015460608301529091015460ff80821615156080840152610100820490931660a0830152600160a81b9004909116151560c082015290565b3360009081526001602052604090205460ff16611e885760405162461bcd60e51b81526004016105439061287b565b6001600160a01b038416611eda5760405162461bcd60e51b8152602060048201526019602482015278496e76616c696420726563697069656e74206164647265737360381b6044820152606401610543565b6040518060e001604052806006548152602001856001600160a01b0316815260200184848080601f0160208091040260200160405190810160405280939291908181526020018383808284376000920182905250938552505060016020808501829052604080860185905260608601889052608090950184905260065484526005815292849020855181559285015190830180546001600160a01b0319166001600160a01b0390921691909117905550908201516002820190611f9d9082612b8b565b5060608201516003820155608082015160048201805491151560ff1992831617905560a0830151600583015560c090920151600691820180549115159184169190911790553360009081526009602090815260408083208454845290915290819020805490931660011790925554905182916001600160a01b038716917f4c8385aaa4a5adcbf208f66654b7ba37c0ada1d27d7f40928286fe0581e2a116906120499088908890612c4b565b60405180910390a46006546040513391907f924813d717e221b5f46dcd8a56da1679e4612584ab3237d55e5faabf6f6a307990600090a36006805490600061209083612953565b919050555050505050565b3360009081526001602052604090205460ff166120ca5760405162461bcd60e51b81526004016105439061287b565b6000811180156120db575060075481105b6120f75760405162461bcd60e51b815260040161054390612abf565b6000818152600460208190526040909120015460ff16156121525760405162461bcd60e51b8152602060048201526015602482015274151c985b9cd9995c88185b1c9958591e481cd95b9d605a1b6044820152606401610543565b60008181526004602081905260409091200154600160a81b900460ff16156121b85760405162461bcd60e51b8152602060048201526019602482015278151c985b9cd9995c88185b1c9958591e4818d85b98d95b1959603a1b6044820152606401610543565b33600090815260086020908152604080832084845290915290205460ff16156122235760405162461bcd60e51b815260206004820152601d60248201527f43616e6e6f7420617070726f7665207472616e736665722074776963650000006044820152606401610543565b3360009081526008602090815260408083208484528252808320805460ff191660011790556004909152812060030180549161225e83612953565b9091555050604051339082907fa4269914b1afdc8f7e4c3aa6794f0de6e37f00884fb97ea9288a1d68ba7de67b90600090a3600254600082815260046020526040902060030154106124f9576000818152600460208190526040909120908101805460ff191660019081179182905560028301549201546001600160a01b0392831692909161010090041660001981016123de57814710156123425760405162461bcd60e51b815260206004820152601d60248201527f496e73756666696369656e7420636f6e74726163742062616c616e63650000006044820152606401610543565b6000836001600160a01b03168360405160006040518083038185875af1925050503d806000811461238f576040519150601f19603f3d011682016040523d82523d6000602084013e612394565b606091505b50509050806123d85760405162461bcd60e51b815260206004820152601060248201526f2a3930b739b332b9103330b4b632b21760811b6044820152606401610543565b506124ae565b6040516370a0823160e01b8152306004820152819083906001600160a01b038316906370a0823190602401602060405180830381865afa158015612426573d6000803e3d6000fd5b505050506040513d601f19601f8201168201806040525081019061244a9190612c7a565b10156124985760405162461bcd60e51b815260206004820152601a60248201527f496e73756666696369656e7420746f6b656e2062616c616e63650000000000006044820152606401610543565b6124ac6001600160a01b0382168585612526565b505b604080518381526001600160a01b03838116602083015285169186917f74a07143a801f8398ed57d254a17757f19c77f62431c3918e5061160b1434486910160405180910390a35050505b50565b6000818154811061250c57600080fd5b6000918252602090912001546001600160a01b0316905081565b604080516001600160a01b03841660248201526044808201849052825180830390910181526064909101909152602080820180516001600160e01b031663a9059cbb60e01b1781528251610d02938793909260009283929183919082885af180612596576040513d6000823e3d81fd5b50506000513d915081156125ae5780600114156125bb565b6001600160a01b0384163b155b156125e457604051635274afe760e01b81526001600160a01b0385166004820152602401610543565b50505050565b6000815180845260005b81811015612610576020818501810151868301820152016125f4565b506000602082860101526020601f19601f83011685010191505092915050565b60208152600061264360208301846125ea565b9392505050565b6001600160a01b03811681146124f957600080fd5b60006020828403121561267157600080fd5b81356126438161264a565b60006020828403121561268e57600080fd5b5035919050565b602081528151602082015260018060a01b0360208301511660408201526000604083015160e060608401526126ce6101008401826125ea565b9050606084015160808401526080840151151560a084015260a084015160c084015260c0840151151560e08401528091505092915050565b60006020828403121561271857600080fd5b81356003811061264357600080fd5b6020808252825182820181905260009190848201906040850190845b818110156127685783516001600160a01b031683529284019291840191600101612743565b50909695505050505050565b60008060006060848603121561278957600080fd5b83359250602084013561279b8161264a565b915060408401356127ab8161264a565b809150509250925092565b600080600080606085870312156127cc57600080fd5b84356127d78161264a565b9350602085013567ffffffffffffffff808211156127f457600080fd5b818701915087601f83011261280857600080fd5b81358181111561281757600080fd5b88602082850101111561282957600080fd5b95986020929092019750949560400135945092505050565b600181811c9082168061285557607f821691505b60208210810361287557634e487b7160e01b600052602260045260246000fd5b50919050565b60208082526015908201527413db9b1e48185c1c1c9bdd995c88185b1b1bddd959605a1b604082015260600190565b634e487b7160e01b600052602160045260246000fd5b6020808252601d908201527f43616e6e6f7420617070726f76652070726f706f73616c207477696365000000604082015260600190565b60208082526026908201527f50726576696f757320617070726f76657220766f74696e6720776173206e6f7460408201526508195b99195960d21b606082015260800190565b634e487b7160e01b600052601160045260246000fd5b6000600182016129655761296561293d565b5060010190565b634e487b7160e01b600052603260045260246000fd5b6020808252601a908201527f5472616e73616374696f6e20646f6573206e6f74206578697374000000000000604082015260600190565b60008083546129c781612841565b600182811680156129df57600181146129f457612a23565b60ff1984168752821515830287019450612a23565b8760005260208060002060005b85811015612a1a5781548a820152908401908201612a01565b50505082870194505b50929695505050505050565b6000602080835260008454612a4381612841565b8060208701526040600180841660008114612a655760018114612a8157612ab1565b60ff19851660408a0152604084151560051b8a01019550612ab1565b89600052602060002060005b85811015612aa85781548b8201860152908301908801612a8d565b8a016040019650505b509398975050505050505050565b60208082526017908201527f5472616e7366657220646f6573206e6f74206578697374000000000000000000604082015260600190565b81810381811115612b0957612b0961293d565b92915050565b634e487b7160e01b600052603160045260246000fd5b634e487b7160e01b600052604160045260246000fd5b601f821115610d02576000816000526020600020601f850160051c81016020861015612b645750805b601f850160051c820191505b81811015612b8357828155600101612b70565b505050505050565b815167ffffffffffffffff811115612ba557612ba5612b25565b612bb981612bb38454612841565b84612b3b565b602080601f831160018114612bee5760008415612bd65750858301515b600019600386901b1c1916600185901b178555612b83565b600085815260208120601f198616915b82811015612c1d57888601518255948401946001909101908401612bfe565b5085821015612c3b5787850151600019600388901b60f8161c191681555b5050505050600190811b01905550565b60208152816020820152818360408301376000818301604090810191909152601f909201601f19160101919050565b600060208284031215612c8c57600080fd5b505191905056fea26469706673582212206bf817db246876d6939fcea185c3566e782ae6b8913307791a4eabc111e3706264736f6c63430008180033a2646970667358221220e798f3d8bbcb7d5dc1abbce34f601ff91b1ee8eb2a0ded19ed5cadb29d653e9864736f6c63430008180033",
  "linkReferences": {},
  "deployedLinkReferences": {}
}